:100000000C949A000C94BB000C94BB000C94BB00A5
:100010000C94BB000C94BB000C94BB000C94BB0074
:100020000C94BB000C94BB000C94BB000C94BB0064
:100030000C94BB000C94BB000C94BB000C94BB0054
:100040000C94BB000C9476010C94BB000C94BB0088
:100050000C94BB000C94BB000C94BB000C94BB0034
:100060000C94BB000C94BB000C94BB000C94BB0024
:100070000C94BB000C940A020C94BB000C94BB00C3
:100080000C948D010C94BB000C94BB000C94BB0031
:100090000C94BB000C94BB000C94BB000C94BB00F4
:1000A0000C94BB000C94BB000C94BB000C94BB00E4
:1000B0000C94BB000C94BB000C94BB000C94BB00D4
:1000C0000C94BB000C94BB000C94BB000C94BB00C4
:1000D0000C94BB000C94BB000C94BB000C94BB00B4
:1000E0000C94BB000C94BB000C94BB000C94BB00A4
:1000F0000C94BB000C94BB000C94BB000C94BB0094
:100100000C94BB000C94BB000C94BB000C94BB0083
:100110000C94BB000C94BB000C94BB000C94BB0073
:100120000C94BB000C94BB000C94BB000C94BB0063
:100130000C94BB0011241FBECFEFD1E8DEBFCDBFB2
:1001400000E00CBF12E0A0E0B2E0EAE2FBE000E079
:100150000BBF02C007900D92A037B107D9F723E07B
:10016000A0E7B2E001C01D92AD38B207E1F70E94EE
:10017000F9020C9493050C94000080917002982F62
:100180009F7080915401807F892B809354019091BE
:10019000700280917102992319F0809353010895A0
:1001A0008F7190914801907E892B8093480108952A
:1001B00093E090934201909141019F719830D9F75B
:1001C00080934201909141019F718913FBCF089563
:1001D000E9E3F1E0808181608083109272021092E5
:1001E000700281E08093F30288E00E94D8008FE0E3
:1001F000809371020E94BD008BEE80935601ECE467
:10020000F1E0808180688083E4E4F1E080818F7D8B
:100210008083E8E4F1E080818F7980830895809382
:10022000720288E00E94D8008FEF80934F01809186
:100230007202882319F086E00C94D800089580910A
:10024000F302823009F451C080914F0183FF41C015
:1002500050917B0180918C03811125C040E0252FB6
:1002600030E0842F90E02817390754F0FC01E05863
:10027000FE4F6081FC01ED58FD4F60834F5FF1CF71
:1002800083E792E090930803809307035093090358
:10029000F901ED58FD4F808180930A038091470159
:1002A0008A5580930B0380914F01886080934F01A2
:1002B00080914C018F7780934C0180914C01806834
:1002C00080934C0186E00E94D80081E080938C03EB
:1002D000089580914F0186FF08C080914F0180648E
:1002E00080934F0186E00C94D80008951F920F92DE
:1002F0000FB60F9211248F939F938091FF029091DC
:1003000000030196909300038093FF029F918F91C9
:100310000F900FBE0F901F9018951F920F920FB65F
:100320000F9211242F933F938F939F932091050356
:1003300030910603C901019690930603809305034B
:1003400080910A0290E0821793073CF41092060312
:100350001092050381E08093FE0280910303909147
:1003600004039C012F5F3F4F30930403209303034A
:1003700020910802309109022817390774F48091FE
:10038000FB02882351F01092040310920303109291
:10039000FB0281E08093F9020AC08091FB02811187
:1003A00006C010920403109203031092F902809188
:1003B0000103909102039C012F5F3F4F3093020392
:1003C0002093010320910802309109022817390770
:1003D00074F48091FA02882351F010920203109273
:1003E00001031092FA0281E08093F8020AC0809122
:1003F000FA02811106C010920203109201031092BA
:10040000F8029F918F913F912F910F900FBE0F9007
:100410001F9018951F920F920FB60F9211240BB6D2
:100420000F928F93EF93FF93EAE7F0E080818F7E46
:10043000808381E08093FD02FF91EF918F910F9077
:100440000BBE0F900FBE0F901F901895CF92DF92AA
:10045000EF92FF922AE939E941E251E40E94260530
:100460002AE939E949ED50E40E94FD0320E030E03B
:1004700040E650E40E9426056B017C0120E030E05C
:1004800040E651E40E94210518164CF020E030E0CF
:10049000A901C701B6010E94F80387FF07C0C12C5C
:1004A000DD24DA948FE7E82E87E4F82EC701B60141
:1004B000FF90EF90DF90CF900895AFE6B0E01C92F0
:1004C000E1E7F0E010821092800089E080938100E3
:1004D000109285001092840084E690E09093890049
:1004E00080938800109290008DE08093910010928C
:1004F00095001092940085E89EE190939900809376
:10050000980082E08C938083089510BA80E48093F1
:100510007C008FE880937A00089514B8269A259A73
:10052000219A8FEF85B908958091780060917900C4
:1005300070E0762F662766277370682B072E000CF5
:10054000880B990B0E94710420E030E040E85AE3E8
:100550000E94260523E333E343E550E40E94260589
:100560002DEC3CEC4CEC5DE30E948C0308958093F1
:10057000CE008091C80085FFFCCF0895CF93DF9314
:10058000EC018991882319F00E94B702FACFDF911C
:10059000CF9108951092CD0085E38093CC00109206
:1005A000C80088E18093C90086E08093CA0008955E
:1005B000F89410928C030FB6F894A895809160007F
:1005C000886180936000109260000FBE0E94CA0292
:1005D0000E94E80081E00E940F010E948D020E94AB
:1005E00085020C945D02EAE7F0E0808180648083FC
:1005F00008950E94D802C1E004E0D3E012E00E9416
:100600001F018091FE02882321F01092FE020E94B9
:10061000F3028091FD02882309F457C01092FD0275
:100620000E9494026093F4027093F5028093F602A4
:100630009093F7020E9426026B017C0160930102F5
:1006400070930202809303029093040220E03FEF34
:100650004FE757E40E94F803811105C08BE092E058
:100660000E94BE0232C06091000270E080E090E023
:100670000E9471044B015C019B01AC01C701B601F2
:100680000E94F80387FF0DC08EE292E00E94BE0236
:1006900080910702811102C0C093FC02C09307023F
:1006A00014C0A5019401C701B6010E9421051816C6
:1006B00064F484E592E00E94BE02809107028130DA
:1006C00011F48093FC02109207028091FC028823AF
:1006D00031F01092FC0200930502C093FB0280915E
:1006E000F902882331F01092F902D0930502109399
:1006F00006028091F802882331F01092F802D0931C
:1007000005021093060280918C03813009F077CFA7
:1007100010928C0374CF5058BB27AA270E94A303C2
:100720000C94E7040E94D90438F00E94E00420F001
:1007300039F49F3F19F426F40C94D6040EF4E09596
:10074000E7FB0C94D004E92F0E94F80458F3BA1781
:10075000620773078407950720F079F4A6F50C94D7
:100760001A050EF4E0950B2EBA2FA02D0B01B9013E
:1007700090010C01CA01A0011124FF27591B99F017
:10078000593F50F4503E68F11A16F040A22F232F23
:10079000342F4427585FF3CF469537952795A79573
:1007A000F0405395C9F77EF41F16BA0B620B730B1A
:1007B000840BBAF09150A1F0FF0FBB1F661F771F8B
:1007C000881FC2F70EC0BA0F621F731F841F48F440
:1007D000879577956795B795F7959E3F08F0B0CFC9
:1007E0009395880F08F09927EE0F979587950895B0
:1007F0000E94AC0408F481E008950E9411040C9456
:10080000E7040E94E00458F00E94D90440F029F463
:100810005F3F29F00C94D00451110C941B050C94EB
:10082000D6040E94F80468F39923B1F3552391F399
:10083000951B550BBB27AA2762177307840738F04F
:100840009F5F5F4F220F331F441FAA1FA9F335D0AC
:100850000E2E3AF0E0E832D091505040E695001C60
:10086000CAF72BD0FE2F29D0660F771F881FBB1F1A
:10087000261737074807AB07B0E809F0BB0B802DF8
:10088000BF01FF2793585F4F3AF09E3F510578F024
:100890000C94D0040C941B055F3FE4F3983ED4F312
:1008A000869577956795B795F7959F5FC9F7880FF8
:1008B000911D9695879597F90895E1E0660F771F4A
:1008C000881FBB1F621773078407BA0720F0621BDB
:1008D000730B840BBA0BEE1F88F7E0950895E8942C
:1008E00009C097FB3EF490958095709561957F4F78
:1008F0008F4F9F4F9923A9F0F92F96E9BB27939526
:10090000F695879577956795B795F111F8CFFAF435
:10091000BB0F11F460FF1BC06F5F7F4F8F4F9F4F66
:1009200016C0882311F096E911C0772321F09EE8C4
:10093000872F762F05C0662371F096E8862F70E02A
:1009400060E02AF09A95660F771F881FDAF7880F04
:100950009695879597F90895990F0008550FAA0B5A
:10096000E0E8FEEF16161706E807F907C0F01216C2
:100970001306E407F50798F0621B730B840B950BC5
:1009800039F40A2661F0232B242B252B21F408951A
:100990000A2609F4A140A6958FEF811D811D0895B7
:1009A00097F99F6780E870E060E008959FEF80EC22
:1009B000089500240A9416161706180609060895C5
:1009C00000240A9412161306140605060895092E2B
:1009D0000394000C11F4882352F0BB0F40F4BF2B9A
:1009E00011F460FF04C06F5F7F4F8F4F9F4F0895DA
:1009F00057FD9058440F551F59F05F3F71F04795D0
:100A0000880F97FB991F61F09F3F79F087950895B4
:100A1000121613061406551FF2CF4695F1DF08C0D3
:100A2000161617061806991FF1CF869571056105F0
:100A300008940895E894BB2766277727CB0197F998
:100A400008950E94AC0408F48FEF08950E943905C0
:100A50000C94E7040E94D90438F00E94E00420F0CE
:100A6000952311F00C94D0040C94D60411240C940A
:100A70001B050E94F80470F3959FC1F3950F50E099
:100A8000551F629FF001729FBB27F00DB11D639F40
:100A9000AA27F00DB11DAA1F649F6627B00DA11DE6
:100AA000661F829F2227B00DA11D621F739FB00D8C
:100AB000A11D621F839FA00D611D221F749F3327FC
:100AC000A00D611D231F849F600D211D822F762F95
:100AD0006A2F11249F5750409AF0F1F088234AF072
:100AE000EE0FFF1FBB1F661F771F881F91505040DE
:100AF000A9F79E3F510580F00C94D0040C941B057F
:100B00005F3FE4F3983ED4F3869577956795B79564
:100B1000F795E7959F5FC1F7FE2B880F911D96957E
:0A0B2000879597F90895F894FFCF28
:100B2A00040000E040030202050002415454454E0D
:100B3A0054494F4E3A2056616C657572206475208F
:100B4A007048206E6F6E2076616C6964650064651A
:100B5A0074656374696F6E2070482074726F7020B8
:100B6A00666169626C653A20416C657274652048F9
:100B7A0041555400646574656374696F6E207048EA
:100B8A00204F4B3A20416C657274652042415300F4
:00000001FF
