:100000000C949A000C94BB000C94BB000C94BB00A5
:100010000C94BB000C94BB000C94BB000C94BB0074
:100020000C94BB000C94BB000C94BB000C94BB0064
:100030000C94BB000C94BB000C94BB000C94BB0054
:100040000C94BB000C9476010C94BB000C94BB0088
:100050000C94BB000C94BB000C94BB000C94BB0034
:100060000C94BB000C94BB000C94BB000C94BB0024
:100070000C94BB000C94EA010C94BB000C94BB00E4
:100080000C94C1010C94BB000C94BB000C94BB00FD
:100090000C94BB000C94BB000C94BB000C94BB00F4
:1000A0000C94BB000C94BB000C94BB000C94BB00E4
:1000B0000C94BB000C94BB000C94BB000C94BB00D4
:1000C0000C94BB000C94BB000C94BB000C94BB00C4
:1000D0000C94BB000C94BB000C94BB000C94BB00B4
:1000E0000C94BB000C94BB000C94BB000C94BB00A4
:1000F0000C94BB000C94BB000C94BB000C94BB0094
:100100000C94BB000C94BB000C94BB000C94BB0083
:100110000C94BB000C94BB000C94BB000C94BB0073
:100120000C94BB000C94BB000C94BB000C94BB0063
:100130000C94BB0011241FBECFEFD1E8DEBFCDBFB2
:1001400000E00CBF12E0A0E0B2E0E2E8FAE000E07C
:100150000BBF02C007900D92A632B107D9F723E07A
:10016000A6E2B2E001C01D92A135B207E1F70E94FC
:10017000E6020C943F050C94000080912602982F13
:100180009F7080915401807F892B809354019091BE
:10019000260280912702992319F080935301089534
:1001A0008F7190914801907E892B8093480108952A
:1001B00093E090934201909141019F719830D9F75B
:1001C00080934201909141019F718913FBCF089563
:1001D000E9E3F1E08081816080831092280210922F
:1001E000260281E08093A90288E00E94D8008FE077
:1001F000809327020E94BD008BEE80935601ECE4B1
:10020000F1E0808180688083E4E4F1E080818F7D8B
:100210008083E8E4F1E080818F7980830895809382
:10022000280288E00E94D8008FEF80934F018091D0
:100230002802882319F086E00C94D8000895809154
:10024000A902823009F451C080914F0183FF41C05F
:1002500050917B0180914E03811125C040E0252FF4
:1002600030E0842F90E02817390754F0FC01E05863
:10027000FE4F6081FC01E75DFD4F60834F5FF1CF72
:1002800089E292E09093C8028093C7025093C9021A
:10029000F901E75DFD4F80818093CA02809147019B
:1002A0008A558093CB0280914F01886080934F01E3
:1002B00080914C018F7780934C0180914C01806834
:1002C00080934C0186E00E94D80081E080934E0329
:1002D000089580914F0186FF08C080914F0180648E
:1002E00080934F0186E00C94D80008951F920F92DE
:1002F0000FB60F9211242F938F939F93AF93BF93B9
:100300008091C3029091C40201969093C40280939D
:10031000C3028091BF029091C002A091C102B0912E
:10032000C2020196A11DB11D8093BF029093C0022D
:10033000A093C102B093C2028091BF029091C0020B
:10034000A091C102B091C202803A9648A140B10585
:1003500074F01092BF021092C0021092C10210926B
:10036000C20281E090E09093BE028093BD02BF91F3
:10037000AF919F918F912F910F900FBE0F901F9073
:1003800018951F920F920FB60F9211242F933F933F
:100390008F939F932091B5023091B602C9010196C7
:1003A0009093B6028093B5028091010290E082178B
:1003B00093073CF41092B6021092B50281E080934C
:1003C000B4029F918F913F912F910F900FBE0F908C
:1003D0001F9018951F920F920FB60F9211240BB613
:1003E0000F928F93EF93FF93EAE7F0E080818F7E87
:1003F000808381E08093B302FF91EF918F910F9002
:100400000BBE0F900FBE0F901F901895CF92DF92EA
:10041000EF92FF922AE939E941E251E40E94D204C5
:100420002AE939E949ED50E40E94A90320E030E0CF
:1004300040E650E40E94D2046B017C0120E030E0F1
:1004400040E651E40E94CD0418164CF020E030E064
:10045000A901C701B6010E94A40387FF07C0C12CF0
:10046000DD24DA948FE7E82E87E4F82EC701B60181
:10047000FF90EF90DF90CF900895AFE6B0E01C9230
:10048000E1E7F0E010821092800089E08093810023
:10049000109285001092840084E690E09093890089
:1004A00080938800109290008DE0809391001092CC
:1004B00095001092940085E89EE1909399008093B6
:1004C000980082E08C938083089510BA80E4809332
:1004D0007C008FE880937A00089514B8269A259AB4
:1004E000219A8FEF85B9089560917800862F90E06A
:1004F0009093BA028093B9026091790070E0709392
:10050000B8026093B702762F662766277370682B50
:10051000792B7093BC026093BB0280E090E00E9454
:100520001B0420E030E040E85AE30E94D20423E3B9
:1005300033E343E550E40E94D2042DEC3CEC4CEC58
:100540005DE30E94380308958093CE008091C80037
:1005500085FFFCCF0895CF93DF93EC018991882329
:1005600019F00E94A402FACFDF91CF910895109262
:10057000CD0085E38093CC001092C80088E1809381
:10058000C90086E08093CA000895F89410924E0343
:100590000FB6F894A8958091600088618093600000
:1005A000109260000FBE0E94B7020E94E80081E036
:1005B0000E940F010E946D020E9465020C943D0290
:1005C000EAE7F0E080818064808308950E94C5029C
:1005D000D1E0C2E00E941F018091B2028111FACFE6
:1005E0008091B402882321F01092B4020E94E002AC
:1005F0008091B302882311F11092B3020E94740219
:100600006093AE027093AF028093B0029093B102F8
:100610000E9406026093AA027093AB028093AC0220
:100620009093AD0220E03FEF4FE757E40E94A40310
:10063000811104C083E092E00E94AB02609100024D
:1006400070E080E090E00E941D042091AA023091A9
:10065000AB024091AC025091AD020E94CD0418163D
:100660000CF0B8CFD093B202C0930202B3CF50586F
:10067000BB27AA270E944F030C9493040E94850471
:1006800038F00E948C0420F039F49F3F19F426F4CE
:100690000C9482040EF4E095E7FB0C947C04E92FA3
:1006A0000E94A40458F3BA176207730784079507DA
:1006B00020F079F4A6F50C94C6040EF4E0950B2E08
:1006C000BA2FA02D0B01B90190010C01CA01A001A4
:1006D0001124FF27591B99F0593F50F4503E68F1FF
:1006E0001A16F040A22F232F342F4427585FF3CF40
:1006F000469537952795A795F0405395C9F77EF411
:100700001F16BA0B620B730B840BBAF09150A1F059
:10071000FF0FBB1F661F771F881FC2F70EC0BA0FDF
:10072000621F731F841F48F4879577956795B79567
:10073000F7959E3F08F0B0CF9395880F08F0992762
:10074000EE0F9795879508950E94580408F481E06C
:1007500008950E94BD030C9493040E948C0458F0E9
:100760000E94850440F029F45F3F29F00C947C043A
:1007700051110C94C7040C9482040E94A40468F3E1
:100780009923B1F3552391F3951B550BBB27AA274A
:1007900062177307840738F09F5F5F4F220F331F84
:1007A000441FAA1FA9F335D00E2E3AF0E0E832D04C
:1007B00091505040E695001CCAF72BD0FE2F29D04F
:1007C000660F771F881FBB1F261737074807AB0721
:1007D000B0E809F0BB0B802DBF01FF2793585F4F96
:1007E0003AF09E3F510578F00C947C040C94C704B9
:1007F0005F3FE4F3983ED4F3869577956795B79578
:10080000F7959F5FC9F7880F911D9695879597F982
:100810000895E1E0660F771F881FBB1F62177307FB
:100820008407BA0720F0621B730B840BBA0BEE1F10
:1008300088F7E0950895E89409C097FB3EF49095F9
:100840008095709561957F4F8F4F9F4F9923A9F0A9
:10085000F92F96E9BB279395F69587957795679538
:10086000B795F111F8CFFAF4BB0F11F460FF1BC07C
:100870006F5F7F4F8F4F9F4F16C0882311F096E90F
:1008800011C0772321F09EE8872F762F05C06623BD
:1008900071F096E8862F70E060E02AF09A95660F76
:1008A000771F881FDAF7880F9695879597F908952F
:1008B000990F0008550FAA0BE0E8FEEF1616170671
:1008C000E807F907C0F012161306E407F50798F0D9
:1008D000621B730B840B950B39F40A2661F0232BF2
:1008E000242B252B21F408950A2609F4A140A6956E
:1008F0008FEF811D811D089597F99F6780E870E053
:1009000060E008959FEF80EC089500240A94161685
:10091000170618060906089500240A9412161306ED
:10092000140605060895092E0394000C11F488237B
:1009300052F0BB0F40F4BF2B11F460FF04C06F5F97
:100940007F4F8F4F9F4F089557FD9058440F551F6D
:1009500059F05F3F71F04795880F97FB991F61F041
:100960009F3F79F087950895121613061406551FB8
:10097000F2CF4695F1DF08C0161617061806991F24
:10098000F1CF86957105610508940895E894BB2719
:1009900066277727CB0197F908950E94580408F439
:1009A0008FEF08950E94E5040C9493040E9485043F
:1009B00038F00E948C0420F0952311F00C947C04F4
:1009C0000C94820411240C94C7040E94A40470F3B4
:1009D000959FC1F3950F50E0551F629FF001729FE4
:1009E000BB27F00DB11D639FAA27F00DB11DAA1FF3
:1009F000649F6627B00DA11D661F829F2227B00D40
:100A0000A11D621F739FB00DA11D621F839FA00DCA
:100A1000611D221F749F3327A00D611D231F849F1A
:100A2000600D211D822F762F6A2F11249F57504071
:100A30009AF0F1F088234AF0EE0FFF1FBB1F661FEC
:100A4000771F881F91505040A9F79E3F510580F0B5
:100A50000C947C040C94C7045F3FE4F3983ED4F3F9
:100A6000869577956795B795F795E7959F5FC1F759
:100A7000FE2B880F911D9695879597F90895F89408
:020A8000FFCFA6
:100A8200040201415454454E54494F4E3A20566196
:100A92006C657572206475207048206E6F6E2076CA
:060AA200616C696465004F
:00000001FF
