:100000000C949A000C94BB000C94BB000C94BB00A5
:100010000C94BB000C94BB000C94BB000C94BB0074
:100020000C94BB000C94BB000C94BB000C94BB0064
:100030000C94BB000C94BB000C94BB000C94BB0054
:100040000C94BB000C9476010C94BB000C94BB0088
:100050000C94BB000C94BB000C94BB000C94BB0034
:100060000C94BB000C94BB000C94BB000C94BB0024
:100070000C94BB000C94EA010C94BB000C94BB00E4
:100080000C94C1010C94BB000C94BB000C94BB00FD
:100090000C94BB000C94BB000C94BB000C94BB00F4
:1000A0000C94BB000C94BB000C94BB000C94BB00E4
:1000B0000C94BB000C94BB000C94BB000C94BB00D4
:1000C0000C94BB000C94BB000C94BB000C94BB00C4
:1000D0000C94BB000C94BB000C94BB000C94BB00B4
:1000E0000C94BB000C94BB000C94BB000C94BB00A4
:1000F0000C94BB000C94BB000C94BB000C94BB0094
:100100000C94BB000C94BB000C94BB000C94BB0083
:100110000C94BB000C94BB000C94BB000C94BB0073
:100120000C94BB000C94BB000C94BB000C94BB0063
:100130000C94BB0011241FBECFEFD1E8DEBFCDBFB2
:1001400000E00CBF12E0A0E0B2E0E6E4FAE000E07C
:100150000BBF02C007900D92A630B107D9F722E07D
:10016000A6E0B2E001C01D92A03BB207E1F70E94F9
:10017000E6020C9421050C94000080910602982F51
:100180009F7080915401807F892B809354019091BE
:10019000060280910702992319F080935301089574
:1001A0008F7190914801907E892B8093480108952A
:1001B00093E090934201909141019F719830D9F75B
:1001C00080934201909141019F718913FBCF089563
:1001D000E9E3F1E08081816080831092080210924F
:1001E000060281E08093890288E00E94D8008FE0B7
:1001F000809307020E94BD008BEE80935601ECE4D1
:10020000F1E0808180688083E4E4F1E080818F7D8B
:100210008083E8E4F1E080818F7980830895809382
:10022000080288E00E94D8008FEF80934F018091F0
:100230000802882319F086E00C94D8000895809174
:100240008902823009F451C080914F0183FF41C07F
:1002500050917B018091AD02811125C040E0252F96
:1002600030E0842F90E02817390754F0FC01E05863
:10027000FE4F6081FC01E75FFD4F60834F5FF1CF70
:1002800089E092E09093A7028093A6025093A8027F
:10029000F901E75FFD4F80818093A90280914701BA
:1002A0008A558093AA0280914F01886080934F0104
:1002B00080914C018F7780934C0180914C01806834
:1002C00080934C0186E00E94D80081E08093AD02CB
:1002D000089580914F0186FF08C080914F0180648E
:1002E00080934F0186E00C94D80008951F920F92DE
:1002F0000FB60F9211242F938F939F93AF93BF93B9
:100300008091A2029091A30201969093A302809300
:10031000A20280919E0290919F02A091A002B091B2
:10032000A1020196A11DB11D80939E0290939F0290
:10033000A093A002B093A10280919E0290919F028F
:10034000A091A002B091A102803A9648A140B105C7
:1003500074F010929E0210929F021092A0021092CE
:10036000A10281E090E090939D0280939C02BF9156
:10037000AF919F918F912F910F900FBE0F901F9073
:1003800018951F920F920FB60F9211242F933F933F
:100390008F939F932091940230919502C901019609
:1003A00090939502809394028091000290E08217CE
:1003B00093073CF4109295021092940281E080938E
:1003C00093029F918F913F912F910F900FBE0F90AD
:1003D0001F9018951F920F920FB60F9211240BB613
:1003E0000F928F93EF93FF93EAE7F0E080818F7E87
:1003F000808381E080939202FF91EF918F910F9023
:100400000BBE0F900FBE0F901F901895CF92DF92EA
:10041000EF92FF922AE939E941E251E40E94B404E3
:100420002AE939E949ED50E40E948B0320E030E0ED
:1004300040E650E40E94B4046B017C0120E030E00F
:1004400040E651E40E94AF0418164CF020E030E082
:10045000A901C701B6010E94860387FF07C0C12C0E
:10046000DD24DA948FE7E82E87E4F82EC701B60181
:10047000FF90EF90DF90CF900895AFE6B0E01C9230
:10048000E1E7F0E010821092800089E08093810023
:10049000109285001092840084E690E09093890089
:1004A00080938800109290008DE0809391001092CC
:1004B00095001092940085E89EE1909399008093B6
:1004C000980082E08C938083089510BA80E4809332
:1004D0007C008FE880937A00089514B8269A259AB4
:1004E000219A8FEF85B9089560917800862F90E06A
:1004F00090939902809398026091790070E07093D4
:10050000970260939602762F662766277370682B92
:10051000792B70939B0260939A0280E090E00E9496
:10052000FD0320E030E040E85AE30E94B40423E3F6
:1005300033E343E550E40E94B4042DEC3CEC4CEC76
:100540005DE30E941A0308958093CE008091C80055
:1005500085FFFCCF0895CF93DF93EC018991882329
:1005600019F00E94A402FACFDF91CF910895109262
:10057000CD0085E38093CC001092C80088E1809381
:10058000C90086E08093CA000895F8941092AD02E5
:100590000FB6F894A8958091600088618093600000
:1005A000109260000FBE0E94B7020E94E80081E036
:1005B0000E940F010E946D020E9465020C943D0290
:1005C000EAE7F0E080818064808308950E94C5029C
:1005D0000E941F0180919302882321F010929302C0
:1005E0000E94E00280919202882391F3109292027D
:1005F0000E94740260938E0270938F028093900227
:10060000909391020E94060260938A0270938B027B
:1006100080938C0290938D0220E03FEF4FE757E4E8
:100620000E9486038111D4CF81E092E00E94AB0248
:10063000CFCF5058BB27AA270E9431030C947504D2
:100640000E94670438F00E946E0420F039F49F3F46
:1006500019F426F40C9464040EF4E095E7FB0C9472
:100660005E04E92F0E94860458F3BA1762077307E5
:100670008407950720F079F4A6F50C94A8040EF4ED
:10068000E0950B2EBA2FA02D0B01B90190010C01A2
:10069000CA01A0011124FF27591B99F0593F50F4BA
:1006A000503E68F11A16F040A22F232F342F442712
:1006B000585FF3CF469537952795A795F04053950A
:1006C000C9F77EF41F16BA0B620B730B840BBAF0DA
:1006D0009150A1F0FF0FBB1F661F771F881FC2F745
:1006E0000EC0BA0F621F731F841F48F48795779559
:1006F0006795B795F7959E3F08F0B0CF9395880F13
:1007000008F09927EE0F9795879508950E943A046F
:1007100008F481E008950E949F030C9475040E94E0
:100720006E0458F00E94670440F029F45F3F29F0FE
:100730000C945E0451110C94A9040C9464040E945E
:10074000860468F39923B1F3552391F3951B550B58
:10075000BB27AA2762177307840738F09F5F5F4F94
:10076000220F331F441FAA1FA9F335D00E2E3AF0D3
:10077000E0E832D091505040E695001CCAF72BD0EB
:10078000FE2F29D0660F771F881FBB1F261737073C
:100790004807AB07B0E809F0BB0B802DBF01FF276E
:1007A00093585F4F3AF09E3F510578F00C945E04E9
:1007B0000C94A9045F3FE4F3983ED4F386957795B3
:1007C0006795B795F7959F5FC9F7880F911D969527
:1007D000879597F90895E1E0660F771F881FBB1F83
:1007E000621773078407BA0720F0621B730B840B30
:1007F000BA0BEE1F88F7E0950895E89409C097FBBF
:100800003EF490958095709561957F4F8F4F9F4FE7
:100810009923A9F0F92F96E9BB279395F69587952B
:1008200077956795B795F111F8CFFAF4BB0F11F4EE
:1008300060FF1BC06F5F7F4F8F4F9F4F16C0882395
:1008400011F096E911C0772321F09EE8872F762FCB
:1008500005C0662371F096E8862F70E060E02AF00C
:100860009A95660F771F881FDAF7880F96958795F8
:1008700097F90895990F0008550FAA0BE0E8FEEFCD
:1008800016161706E807F907C0F012161306E40754
:10089000F50798F0621B730B840B950B39F40A264D
:1008A00061F0232B242B252B21F408950A2609F42B
:1008B000A140A6958FEF811D811D089597F99F672F
:1008C00080E870E060E008959FEF80EC08950024D8
:1008D0000A941616170618060906089500240A94A5
:1008E00012161306140605060895092E0394000C2B
:1008F00011F4882352F0BB0F40F4BF2B11F460FFBA
:1009000004C06F5F7F4F8F4F9F4F089557FD9058E2
:10091000440F551F59F05F3F71F04795880F97FBC3
:10092000991F61F09F3F79F087950895121613067D
:100930001406551FF2CF4695F1DF08C016161706AC
:100940001806991FF1CF86957105610508940895E1
:10095000E894BB2766277727CB0197F908950E9473
:100960003A0408F48FEF08950E94C7040C947504AC
:100970000E94670438F00E946E0420F0952311F065
:100980000C945E040C94640411240C94A9040E9439
:10099000860470F3959FC1F3950F50E0551F629F39
:1009A000F001729FBB27F00DB11D639FAA27F00DC8
:1009B000B11DAA1F649F6627B00DA11D661F829FEF
:1009C0002227B00DA11D621F739FB00DA11D621FD4
:1009D000839FA00D611D221F749F3327A00D611DF1
:1009E000231F849F600D211D822F762F6A2F1124D3
:1009F0009F5750409AF0F1F088234AF0EE0FFF1F06
:100A0000BB1F661F771F881F91505040A9F79E3F5C
:100A1000510580F00C945E040C94A9045F3FE4F34C
:100A2000983ED4F3869577956795B795F795E795B2
:100A30009F5FC1F7FE2B880F911D9695879597F9BB
:060A40000895F894FFCFB9
:060A460002616C6C6F0000
:00000001FF
