:100000000C949A000C94BB000C94BB000C94BB00A5
:100010000C94BB000C94BB000C94BB000C94BB0074
:100020000C94BB000C94BB000C94BB000C94BB0064
:100030000C94BB000C94BB000C94BB000C94BB0054
:100040000C94BB000C9476010C94BB000C94BB0088
:100050000C94BB000C94BB000C94BB000C94BB0034
:100060000C94BB000C94BB000C94BB000C94BB0024
:100070000C94BB000C940B020C94BB000C94BB00C2
:100080000C948D010C94BB000C94BB000C94BB0031
:100090000C94BB000C94BB000C94BB000C94BB00F4
:1000A0000C94BB000C94BB000C94BB000C94BB00E4
:1000B0000C94BB000C94BB000C94BB000C94BB00D4
:1000C0000C94BB000C94BB000C94BB000C94BB00C4
:1000D0000C94BB000C94BB000C94BB000C94BB00B4
:1000E0000C94BB000C94BB000C94BB000C94BB00A4
:1000F0000C94BB000C94BB000C94BB000C94BB0094
:100100000C94BB000C94BB000C94BB000C94BB0083
:100110000C94BB000C94BB000C94BB000C94BB0073
:100120000C94BB000C94BB000C94BB000C94BB0063
:100130000C94BB0011241FBECFEFD1E8DEBFCDBFB2
:1001400000E00CBF12E0A0E0B2E0E8E1F2E100E084
:100150000BBF02C007900D92A639B107D9F723E073
:10016000A6E9B2E001C01D92A73BB207E1F70E94E9
:1001700017030C940A090C94000080919602982FA2
:100180009F7080915401807F892B809354019091BE
:10019000960280919702992319F080935301089554
:1001A0008F7190914801907E892B8093480108952A
:1001B00093E090934201909141019F719830D9F75B
:1001C00080934201909141019F718913FBCF089563
:1001D000E9E3F1E0808181608083109298021092BF
:1001E000960281E08093190388E00E94D8008FE096
:1001F000809397020E94BD008BEE80935601ECE441
:10020000F1E0808180688083E4E4F1E080818F7D8B
:100210008083E8E4F1E080818F7980830895809382
:10022000980288E00E94D8008FEF80934F01809160
:100230009802882319F086E00C94D80008958091E4
:100240001903823009F451C080914F0183FF41C0EE
:1002500050917B018091B603811125C040E0252F8C
:1002600030E0842F90E02817390754F0FC01E05863
:10027000FE4F6081FC01E756FD4F60834F5FF1CF79
:1002800089E992E0909332038093310350933303D2
:10029000F901E756FD4F8081809334038091470137
:1002A0008A558093350380914F01886080934F0178
:1002B00080914C018F7780934C0180914C01806834
:1002C00080934C0186E00E94D80081E08093B603C1
:1002D000089580914F0186FF08C080914F0180648E
:1002E00080934F0186E00C94D80008951F920F92DE
:1002F0000FB60F9211248F939F93809129039091B1
:100300002A03019690932A03809329039F918F914A
:100310000F900FBE0F901F9018951F920F920FB65F
:100320000F9211242F933F934F935F938F939F933B
:1003300020912F0330913003C9010196909330032F
:1003400080932F038091100290E0821793073CF472
:100350001092300310922F0381E0809328032091A4
:100360002D0330912E03C901019690932E038093A3
:100370002D0340910E0250910F0280911B034217F2
:10038000530764F4882361F010922E0310922D031A
:1003900010921B0381E08093240308C0811106C0E2
:1003A00010922E0310922D031092240380912B03A0
:1003B00090912C039C012F5F3F4F30932C0320938F
:1003C0002B0320910E0230910F022817390774F485
:1003D00080911A03882351F010922C0310922B0362
:1003E00010921A0381E0809323030AC080912503B1
:1003F000811106C010922C0310922B03109223033C
:100400009F918F915F914F913F912F910F900FBED0
:100410000F901F9018951F920F920FB60F921124F4
:100420000BB60F928F93EF93FF93EAE7F0E0808192
:100430008F7E808381E080932703FF91EF918F91DE
:100440000F900BBE0F900FBE0F901F901895CF927C
:10045000DF92EF92FF922AE939E941E251E40E94EA
:10046000BA052AE939E949ED50E40E94910420E0F7
:1004700030E040E650E40E94BA056B017C0120E0C8
:1004800030E040E651E40E94B50518164CF020E03B
:1004900030E0A901C701B6010E948C0487FF07C0A4
:1004A000C12CDD24DA948FE7E82E87E4F82EC7010B
:1004B000B601FF90EF90DF90CF900895AFE6B0E0E7
:1004C0001C92E1E7F0E010821092800089E08093B6
:1004D0008100109285001092840084E690E0909351
:1004E000890080938800109290008DE080939100A5
:1004F000109295001092940085E89EE190939900E7
:100500008093980082E08C938083089510BA80E4F1
:1005100080937C008FE880937A00089514B8269A1F
:10052000259A219A8FEF85B908958091780060917E
:10053000790070E0762F662766277370682B072E88
:10054000000C880B990B0E94050520E030E040E884
:100550005AE30E94BA0523E333E343E550E40E94E3
:10056000BA052DEC3CEC4CEC5DE30E9420040895B0
:10057000CF93DF93CDB7DEB7DA950FB6F894DEBF31
:100580000FBECDBFAE014A5F5E4FFA01619171911E
:10059000AF01CE0101960E94270680E0E1E0F0E085
:1005A000EC0FFD1FE80FF11D9081992341F090930E
:1005B000CE009091C80095FFFCCF8F5FEFCFD39511
:1005C0000FB6F894DEBF0FBECDBFDF91CF91089577
:1005D0001092CD0085E38093CC001092C80088E192
:1005E0008093C90086E08093CA000895F894109221
:1005F000B6030FB6F894A895809160008861809347
:100600006000109260000FBE0E94E8020E94E800A5
:1006100081E00E940F010E948E020E9486020C94CB
:100620005E02EAE7F0E080818064808308950E94A2
:10063000F60281E1882E82E0982E3324339401E083
:1006400010E092E0A92EB12CC6E7D2E00E941F0173
:1006500080912803882321F0109228030E9411031F
:1006600080912703882309F469C0109227030E9410
:10067000950260931F03709320038093210390934E
:1006800022030E9427026B017C0160930202709397
:100690000302809304029093050220E03FEF4FE7AE
:1006A00057E40E948C04811107C09F928F920E9490
:1006B000B8020F900F9042C06091010270E080E09C
:1006C00090E00E9405052B013C019B01AC01C70194
:1006D000B6010E948C0487FF15C084E392E09F93CB
:1006E0008F930E94B8020F900F9080910C0290910E
:1006F0000D02892B11F43092260310930D02009302
:100700000C021CC0A3019201C701B6010E94B505ED
:100710001816A4F48AE592E09F938F930E94B80282
:100720000F900F9080910C0290910D02019711F49F
:100730003092260310920D0210920C0210922603A2
:1007400030921B038091260310922603809124038C
:100750008823A1F01092240310921B03B092090287
:10076000A092080280911E0391E0980F90931E03BF
:1007700090910002891710F030921D03809123039D
:10078000882351F01092230310921A0380911B03C7
:10079000811102C0309226038091B603813009F0A6
:1007A00055CFDF93CF930E94B8020F900F908091A6
:1007B0001C038823A1F080910602909107028330E8
:1007C000910581F08130910559F182309105A1F4B4
:1007D00080911A03882309F439CF10921A031092DA
:1007E000B60334CF20911B0321111092B603209140
:1007F0001A0321111092B603892B09F027CF80919B
:100800000A0290910B0290930902809308023092A1
:100810001A031092B60310921D0310921E0316CFF6
:1008200020911B03222341F310921B0320910A0203
:1008300030910B023093090220930802DBCF50580D
:10084000BB27AA270E9437040C947B050E946D05E4
:1008500038F00E94740520F039F49F3F19F426F413
:100860000C946A050EF4E095E7FB0C946405E92FFF
:100870000E948C0558F3BA1762077307840795071F
:1008800020F079F4A6F50C94AE050EF4E0950B2E4D
:10089000BA2FA02D0B01B90190010C01CA01A001D2
:1008A0001124FF27591B99F0593F50F4503E68F12D
:1008B0001A16F040A22F232F342F4427585FF3CF6E
:1008C000469537952795A795F0405395C9F77EF43F
:1008D0001F16BA0B620B730B840BBAF09150A1F088
:1008E000FF0FBB1F661F771F881FC2F70EC0BA0F0E
:1008F000621F731F841F48F4879577956795B79596
:10090000F7959E3F08F0B0CF9395880F08F0992790
:10091000EE0F9795879508950E94400508F481E0B1
:1009200008950E94A5040C947B050E94740558F05C
:100930000E946D0540F029F45F3F29F00C94640596
:1009400051110C94AF050C946A050E948C0568F354
:100950009923B1F3552391F3951B550BBB27AA2778
:1009600062177307840738F09F5F5F4F220F331FB2
:10097000441FAA1FA9F335D00E2E3AF0E0E832D07A
:1009800091505040E695001CCAF72BD0FE2F29D07D
:10099000660F771F881FBB1F261737074807AB074F
:1009A000B0E809F0BB0B802DBF01FF2793585F4FC4
:1009B0003AF09E3F510578F00C9464050C94AF0515
:1009C0005F3FE4F3983ED4F3869577956795B795A6
:1009D000F7959F5FC9F7880F911D9695879597F9B1
:1009E0000895E1E0660F771F881FBB1F621773072A
:1009F0008407BA0720F0621B730B840BBA0BEE1F3F
:100A000088F7E0950895E89409C097FB3EF4909527
:100A10008095709561957F4F8F4F9F4F9923A9F0D7
:100A2000F92F96E9BB279395F69587957795679566
:100A3000B795F111F8CFFAF4BB0F11F460FF1BC0AA
:100A40006F5F7F4F8F4F9F4F16C0882311F096E93D
:100A500011C0772321F09EE8872F762F05C06623EB
:100A600071F096E8862F70E060E02AF09A95660FA4
:100A7000771F881FDAF7880F9695879597F908955D
:100A8000990F0008550FAA0BE0E8FEEF161617069F
:100A9000E807F907C0F012161306E407F50798F007
:100AA000621B730B840B950B39F40A2661F0232B20
:100AB000242B252B21F408950A2609F4A140A6959C
:100AC0008FEF811D811D089597F99F6780E870E081
:100AD00060E008959FEF80EC089500240A941616B4
:100AE000170618060906089500240A94121613061C
:100AF000140605060895092E0394000C11F48823AA
:100B000052F0BB0F40F4BF2B11F460FF04C06F5FC5
:100B10007F4F8F4F9F4F089557FD9058440F551F9B
:100B200059F05F3F71F04795880F97FB991F61F06F
:100B30009F3F79F087950895121613061406551FE6
:100B4000F2CF4695F1DF08C0161617061806991F52
:100B5000F1CF86957105610508940895E894BB2747
:100B600066277727CB0197F908950E94400508F47E
:100B70008FEF08950E94CD050C947B050E946D05B2
:100B800038F00E94740520F0952311F00C94640550
:100B90000C946A0511240C94AF050E948C0570F327
:100BA000959FC1F3950F50E0551F629FF001729F12
:100BB000BB27F00DB11D639FAA27F00DB11DAA1F21
:100BC000649F6627B00DA11D661F829F2227B00D6E
:100BD000A11D621F739FB00DA11D621F839FA00DF9
:100BE000611D221F749F3327A00D611D231F849F49
:100BF000600D211D822F762F6A2F11249F575040A0
:100C00009AF0F1F088234AF0EE0FFF1FBB1F661F1A
:100C1000771F881F91505040A9F79E3F510580F0E3
:100C20000C9464050C94AF055F3FE4F3983ED4F355
:100C3000869577956795B795F795E7959F5FC1F787
:100C4000FE2B880F911D9695879597F908950F9320
:100C50001F93CF93DF93CDB7DEB72E970FB6F894DF
:100C6000DEBF0FBECDBF8C0186E08C831A83098363
:100C70008FEF9FE79E838D83CE0101960E945006E1
:100C8000EF81F885E00FF11F10822E960FB6F894D1
:100C9000DEBF0FBECDBFDF91CF911F910F910895A1
:100CA0002F923F924F925F926F927F928F929F927C
:100CB000AF92BF92CF92DF92EF92FF920F931F936A
:100CC000CF93DF93CDB7DEB72B970FB6F894DEBF87
:100CD0000FBECDBF6C017B018A01FC011782168219
:100CE000838181FFCCC1CE0101963C01F601938145
:100CF000F70193FD859193FF81917F01882309F48A
:100D0000BAC1853239F493FD859193FF81917F01BA
:100D1000853229F4B60190E00E947008E7CF912C4B
:100D2000212C312CFFE1F315D8F08B3279F038F417
:100D3000803279F08332A1F4232D20611DC08D32E1
:100D400061F0803369F4232D216016C0832D826009
:100D5000382EE32DE4603E2E2AC0F32DF8601DC02E
:100D600037FC2DC020ED280F2A3040F08E32B9F428
:100D700036FC81C1232D2064322E19C036FE06C0F8
:100D80008AE0989E200D1124922E11C0EAE02E9E3A
:100D9000200D1124222EF32DF0623F2E08C08C3638
:100DA00021F4832D8068382E02C0883641F4F70183
:100DB00093FD859193FF81917F018111B3CF982F8E
:100DC0009F7D9554933028F40C5F1F4F9FE39983C8
:100DD0000DC0833631F0833771F0833509F059C087
:100DE00021C0F801808189830E5F1F4F882483947E
:100DF000912C530113C02801F2E04F0E511CF80151
:100E0000A080B18036FE03C0692D70E002C06FEF94
:100E10007FEFC5010E9465084C018201F32DFF7729
:100E20003F2E16C0280122E0420E511CF801A0807E
:100E3000B18036FE03C0692D70E002C06FEF7FEF16
:100E4000C5010E945A084C01F32DF0683F2E820123
:100E500033FC1BC0822D90E088169906B0F4B601D1
:100E600080E290E00E9470082A94F4CFF50137FCEC
:100E7000859137FE81915F01B60190E00E94700874
:100E800021102A9421E0821A91088114910471F7AB
:100E9000E8C0843611F0893641F5F80137FE07C005
:100EA00060817181828193810C5F1F4F08C06081D6
:100EB0007181072E000C880B990B0E5F1F4FF32DCD
:100EC000FF763F2E97FF09C09095809570956195AC
:100ED0007F4F8F4F9F4FF0683F2E2AE030E0A301F5
:100EE0000E94AC08882E861845C0853731F4232D22
:100EF0002F7EB22E2AE030E025C0932D997FB92EA7
:100F00008F36C1F018F4883579F0B5C0803719F004
:100F1000883721F0B0C0E92FE061BE2EB4FE0DC0CD
:100F2000FB2DF460BF2E09C034FE0AC0292F2660B5
:100F3000B22E06C028E030E005C020E130E002C05B
:100F400020E132E0F801B7FE07C060817181828143
:100F500093810C5F1F4F06C06081718180E090E03B
:100F60000E5F1F4FA3010E94AC08882E8618FB2D30
:100F7000FF773F2E36FE0DC0232D2E7FA22E891423
:100F800058F434FE0BC032FC09C0832D8E7EA82E8F
:100F900005C0B82CA32C03C0B82C01C0B92CA4FEEA
:100FA0000FC0FE01E80DF11D8081803321F49A2DE0
:100FB000997EA92E09C0A2FE06C0B394B39404C0C2
:100FC0008A2D867809F0B394A3FC11C0A0FE06C058
:100FD000B21488F4280C922C9B180EC0B21460F442
:100FE000B60180E290E00E947008B394F7CFB2148B
:100FF00018F42B1802C0982C212CA4FE10C0B601A6
:1010000080E390E00E947008A2FE17C0A1FC03C01C
:1010100088E790E002C088E590E0B6010CC08A2D18
:10102000867859F0A1FE02C08BE201C080E2A7FCE5
:101030008DE2B60190E00E947008891438F4B60180
:1010400080E390E00E9470089A94F7CF8A94F301AD
:10105000E80DF11D8081B60190E00E9470088110BA
:10106000F5CF222009F442CEB60180E290E00E9442
:1010700070082A94F6CFF6018681978102C08FEF1F
:101080009FEF2B960FB6F894DEBF0FBECDBFDF915A
:10109000CF911F910F91FF90EF90DF90CF90BF9075
:1010A000AF909F908F907F906F905F904F903F9008
:1010B0002F900895FC010590615070400110D8F701
:1010C000809590958E0F9F1F0895FC016150704090
:1010D00001900110D8F7809590958E0F9F1F08956D
:1010E0000F931F93CF93DF93FB01238121FD03C057
:1010F0008FEF9FEF2CC022FF16C0468157812481BD
:1011000035814217530744F4A081B1819D012F5FBF
:101110003F4F318320838C93268137812F5F3F4F50
:101120003783268314C08B01EC01FB010084F18519
:10113000E02D1995892BE1F6D80116968D919C9199
:101140001797019617969C938E931697CE01DF9171
:10115000CF911F910F910895FA01AA27283051F1DC
:10116000203181F1E8946F936E7F6E5F7F4F8F4FD8
:101170009F4FAF4FB1E03ED0B4E03CD0670F781F37
:10118000891F9A1FA11D680F791F8A1F911DA11D1C
:101190006A0F711D811D911DA11D20D009F4689455
:1011A0003F912AE0269F11243019305D3193DEF6FD
:1011B000CF010895462F4770405D4193B3E00FD0B3
:1011C000C9F7F6CF462F4F70405D4A3318F0495D9E
:1011D00031FD4052419302D0A9F7EACFB4E0A69581
:1011E0009795879577956795BA95C9F700976105A3
:1011F000710508959B01AC010A2E069457954795F9
:1012000037952795BA95C9F7620F731F841F951FED
:08121000A01D0895F894FFCF22
:1012180005040000E040030002000200020005008F
:1012280002415454454E54494F4E3A2056616C651C
:101238007572206475207048206E6F6E2076616C20
:1012480069646500646574656374696F6E207048CD
:101258002074726F7020666169626C653A20416C17
:1012680065727465204841555400646574656374FB
:10127800696F6E207048204F4B3A20416C6572743C
:10128800652042415300526563657074696F6E2032
:1012980064756E206D657373616765207769726523
:0612A8006C657373000089
:00000001FF
