:100000000C941B010C943C010C943C010C943C019D
:100010000C943C010C943C010C943C010C943C016C
:100020000C943C010C943C010C943C010C943C015C
:100030000C943C010C943C010C943C010C943C014C
:100040000C943C010C94A5010C943C010C943C01D3
:100050000C943C010C943C010C943C010C943C012C
:100060000C943C010C943C010C943C010C943C011C
:100070000C943C010C94BC010C943C010C943C018C
:100080000C94DD010C943C010C943C010C943C015B
:100090000C943C010C943C010C943C010C943C01EC
:1000A0000C943C010C943C010C943C010C943C01DC
:1000B0000C943C010C943C010C943C010C943C01CC
:1000C0000C943C010C943C010C943C010C943C01BC
:1000D0000C943C010C943C010C943C010C943C01AC
:1000E0000C943C010C943C010C943C010C943C019C
:1000F0000C943C010C943C010C943C010C943C018C
:100100000C943C010C943C010C943C010C943C017B
:100110000C943C010C943C010C943C010C943C016B
:100120000C943C010C943C010C943C010C943C015B
:100130000C943C016E616E00696E660000407A109E
:10014000F35A00A0724E18090010A5D4E80000E888
:100150007648170000E40B54020000CA9A3B0000E6
:1001600000E1F505000080969800000040420F0075
:100170000000A08601000000102700000000E80336
:10018000000000006400000000000A000000000001
:100190000100000000002C76D888DC674F0823DFC0
:1001A000C1DFAE59E1B1B796E5E3E453C63AE65193
:1001B000997696E8E6C28426EB898C9B62ED407CBA
:1001C0006FFCEFBC9C9F40F2BAA56FA5F490055A56
:1001D0002AF75C936B6CF9676DC11BFCE0E40D477B
:1001E000FEF520E6B500D0ED902E0300943577059E
:1001F0000080841E080000204E0A000000C80C3356
:100200003333330F986E12831141EF8D2114893BE4
:10021000E65516CFFEE6DB18D1844B381BF77C1D64
:10022000901DA4BBE424203284725E228100C9F1B7
:1002300024ECA1E53D2711241FBECFEFD1E8DEBF9E
:10024000CDBF00E00CBF14E0A0E0B2E0EEE2FBE1C5
:1002500000E00BBF02C007900D92A231B107D9F7A1
:1002600025E0A2E1B4E001C01D92AE33B207E1F790
:100270000E9409040C94950D0C94000093E0909357
:100280004201909141019F719830D9F780934201CA
:10029000909141019F718913FBCF08958091920441
:1002A000823009F451C080914F0183FF41C05091C9
:1002B0007B0180913D05811125C040E0252F30E074
:1002C000842F90E02817390754F0FC01E058FE4FC6
:1002D0006081FC01EE5EFB4F60834F5FF1CF82E1F6
:1002E00094E09093B9048093B8045093BA04F90150
:1002F000EE5EFB4F80818093BB04809147018A555D
:100300008093BC0480914F01886080934F0180915D
:100310004C018F7780934C0180914C0180688093D1
:100320004C0186E00E943E0181E080933D050895E6
:1003300080914F0186FF08C080914F0180648093B7
:100340004F0186E00C943E0108951F920F920FB664
:100350000F9211248F939F938091B0049091B104D8
:1003600001969093B1048093B0049F918F910F9068
:100370000FBE0F901F9018951F920F920FB60F92FD
:1003800011240BB60F928F93EF93FF93EAE7F0E0FF
:1003900080818F7E808381E08093A804FF91EF911C
:1003A0008F910F900BBE0F900FBE0F901F9018955E
:1003B0009BB181E089278BB908951F920F920FB6E8
:1003C0000F9211240BB60F922F933F934F935F938D
:1003D0006F937F938F939F93AF93BF93EF93FF930D
:1003E0008091B6049091B7049C012F5F3F4F3093EA
:1003F000B7042093B6042091160230911702821799
:1004000093073CF01092B7041092B60481E08093F9
:10041000A9042091B4043091B504C90101969093C8
:10042000B5048093B404409112025091130280915C
:1004300094044217530764F4882361F01092B504C2
:100440001092B4041092940481E08093A50408C033
:10045000811106C01092B5041092B4041092A50444
:100460008091B2049091B3049C012F5F3F4F309371
:10047000B3042093B2042091120230911302281782
:10048000390774F480919304882351F01092B304D7
:100490001092B2041092930481E08093A4040AC0E5
:1004A0008091A604811106C01092B3041092B20488
:1004B0001092A4048091A3048823D1F08091AE040B
:1004C0009091AF049C012F5F3F4F3093AF04209376
:1004D000AE0420911002309111022817390764F4FC
:1004E0001092AF041092AE0481E080939F0404C088
:1004F0001092AF041092AE048091A2048823D1F030
:100500008091AC049091AD049C012F5F3F4F3093DC
:10051000AD042093AC0420910E0230910F022817F5
:10052000390764F41092AD041092AC0481E080931A
:100530009E0404C01092AD041092AC048091AA04F1
:100540009091AB049C012F5F3F4F3093AB042093FD
:10055000AA0420911402309115028217930734F0F7
:100560001092AB041092AA040E94D801FF91EF915F
:10057000BF91AF919F918F917F916F915F914F91BB
:100580003F912F910F900BBE0F900FBE0F901F90B9
:100590001895009719F480E197E20AC0813091051F
:1005A00019F488E893E104C0029731F480ED97E0F4
:1005B00090931502809314020895CF92DF92EF92E8
:1005C000FF926B017C0120E030E040EE50E40E949D
:1005D000490A87FF0EC020E030E040EC50E4C7013C
:1005E000B6010E94720B181624F42E9A299A2D989F
:1005F0001CC020E030E040EE50E4C701B6010E948C
:10060000720B18161CF42E9A29980EC020E030E0C8
:1006100040EC50E4C701B6010E94490A87FF02C0BE
:100620002E9801C02E9A299A2D9AFF90EF90DF9074
:10063000CF900895CF92DF92EF92FF922AE939E9A5
:1006400041E251E40E94770B2AE939E949ED50E48F
:100650000E944E0A20E030E040E650E40E94770B12
:100660006B017C0120E030E040E651E40E94720B17
:1006700018164CF020E030E0A901C701B6010E9435
:10068000490A87FF07C0C12CDD24DA948FE7E82EE2
:1006900087E4F82EC701B601FF90EF90DF90CF906E
:1006A0000895AFE6B0E01C92E1E7F0E0108210920E
:1006B000800089E080938100109285001092840070
:1006C00084E690E0909389008093880010929000D7
:1006D0008DE080939100109295001092940085E82F
:1006E0009EE1909399008093980082E08C938083A0
:1006F000089510BA80E480937C008FE880937A009C
:10070000089514B81AB8269A259A219A509A15B8BD
:100710001BB80895809178006091790070E0762F81
:10072000662766277370682B072E000C880B990BC1
:100730000E94C20A20E030E040E85AE30E94770BB2
:1007400023E333E343E550E40E94770B2DEC3CECCC
:100750004CEC5DE30E94DD090895CF93DF93CDB7A4
:10076000DEB7DA950FB6F894DEBF0FBECDBFAE018F
:100770004A5F5E4FFA0161917191AF01CE0101961E
:100780000E940E0D80E0E1E0F0E0EC0FFD1FE80FAD
:10079000F11D9081992341F09093CE009091C80073
:1007A00095FFFCCF8F5FEFCFD3950FB6F894DEBFE8
:1007B0000FBECDBFDF91CF9108951092CD0085E39C
:1007C0008093CC001092C80088E18093C90086E035
:1007D0008093CA000895F89410923D050FB6F894DE
:1007E000A8958091600088618093600010926000FD
:1007F0000FBE0E94DD030E9481030E9479030E94C4
:10080000510378940895EAE7F0E080818064808362
:1008100008950E94EB033324339401E010E0C2E01A
:10082000D0E08DE2882E83E0982E92E7A92E93E007
:10083000B92E0E944E0180919C0490919D040E94CB
:10084000C9026091020270910302809104029091AA
:1008500005020E94DD028091A9048823A1F0109274
:10086000A9040E94030480919D048F9380919C04AD
:100870008F9388E192E09F938F930E94AD030F9036
:100880000F900F900F908091A804882309F4B3C0B3
:100890001092A8040E948A03F62EE72ED82EC92EA5
:1008A000862F9E2DAD2DBC2D809398049093990496
:1008B000A0939A04B0939B04A7019601652F742F0F
:1008C000832F922F0E941A036093020270930302F7
:1008D0008093040290930502CF92DF92EF92FF92F1
:1008E00082E392E09F938F930E94AD038091050273
:1008F0008F93809104028F93809103028F93809154
:1009000002028F9386E492E09F938F930E94AD033F
:10091000C0900202D0900302E0900402F090050221
:100920008DB79EB70C960FB6F8949EBF0FBE8DBFC5
:1009300020E03FEF4FE757E4C701B6010E94490AA4
:10094000811109C087E592E09F938F930E94AD03C8
:100950000F900F9042C06091010270E080E090E043
:100960000E94C20A2B013C019B01AC01C701B601E8
:100970000E94490A87FF15C080910C0290910D02D8
:10098000892B51F43092A7048CE792E09F938F93C8
:100990000E94AD030F900F9010930D0200930C0274
:1009A0001CC0A3019201C701B6010E94720B181668
:1009B000A4F480910C0290910D02019751F43092B1
:1009C000A7048CEA92E09F938F930E94AD030F904F
:1009D0000F9010920D0210920C028091A7041F92AA
:1009E0008F938CED92E09F938F930E94AD030F90B5
:1009F0000F900F900F901092A70430929404809162
:100A0000A7041092A7048091A504882321F11092D5
:100A1000A50410929404D0930902C09308028BEEAF
:100A200092E09F938F930E94AD038091970491E091
:100A3000980F909397040F900F9090910002891750
:100A400050F030929604109297049F928F920E94D9
:100A5000AD030F900F908091A404882371F0109241
:100A6000A4041092930480919404811106C0809193
:100A7000A704811102C03092A70480913D05813006
:100A800009F06AC0BF92AF920E94AD030F900F9021
:100A900080919504882319F18091060290910702B4
:100AA00083309105F9F0019731F580919404882302
:100AB00011F11092940480910A0290910B0290938C
:100AC0000902809308028130910509F0B0C083E9E2
:100AD00093E09F938F930E94AD030F900F9010921D
:100AE0003D0509C080919404811110923D058091CB
:100AF00093048111F4CF80919504882369F180914A
:100B00000602909107028230910549F48091930486
:100B1000882311F11092930410923D051DC0892B7A
:100B2000D9F480910A0290910B029093090280936C
:100B300008028130910501F583E993E09F938F933B
:100B40000E94AD030F900F903092930410923D05D8
:100B500010929604109297046091960480910C0272
:100B600090910D026623B9F08130910569F4D0931C
:100B70009D04C0939C0424C0892B19F48BEB93E053
:100B8000DDCF82EE93E0DACF0097D1F410929D048E
:100B900010929C0415C08130910581F420910802C7
:100BA00030910902A901425051094230510508F023
:100BB0004AC090939D0480939C0445C0009741F1E6
:100BC0001092A3041092A10410929F04611119C005
:100BD000892BB9F480910802909109028130910526
:100BE00081F43092A30420919E04222329F0D09313
:100BF0009D04C0939C041DCE90939D0480939C04FF
:100C000018CE1092A2041092A00410929E0411CE4D
:100C10002091080230910902A90142505109423045
:100C2000510568F410929D0410929C0408C0892B11
:100C300019F48BEB93E04DCF82EE93E04ACF232B58
:100C400009F4A4CFBDCF232B09F0BACF3092A3046F
:100C500020919F04222329F0D0939D04C0939C04EB
:100C6000B7CF10939D0400939C04B2CF2F923F9274
:100C70004F925F926F927F928F929F92AF92BF92AC
:100C8000CF92DF92EF92FF920F931F93CF93DF9358
:100C9000CDB7DEB760970FB6F894DEBF0FBECDBFFD
:100CA0007C011B016A01FC0117821682838181FF8E
:100CB00044C39E012F5F3F4F3901F7019381F1013A
:100CC00093FD859193FF81911F01882309F431C31E
:100CD000853239F493FD859193FF81911F0185320F
:100CE00039F4B70190E00E94D20C56016501E5CFBE
:100CF00010E0512C912CFFE1F915D8F08B3279F0EE
:100D000038F4803279F08332A1F4F92DF0612EC0ED
:100D10008D3261F0803369F4292D21602DC0392D89
:100D20003260932E892D8460982E2AC0E92DE860C8
:100D300015C097FC2DC020ED280F2A3088F496FEB0
:100D400006C03AE0139F200D1124122F19C08AE02B
:100D5000589E200D1124522EE92DE0629E2E10C0C7
:100D60008E3231F496FCE5C2F92DF0649F2E08C056
:100D70008C3621F4292D2068922E02C0883641F449
:100D8000F10193FD859193FF81911F018111B3CFF3
:100D90009BEB980F933020F4992D9061805E07C0F3
:100DA0009BE9980F933008F066C1992D9F7E96FFBE
:100DB00016E09F73992E853619F49064992E08C019
:100DC000863621F4392F3068932E02C0111111504C
:100DD00097FE07C01C3350F444244394410E27E08F
:100DE0000BC0183038F027E017E005C027E09CE37F
:100DF000492E02C0212F412C560184E0A80EB11CBF
:100E0000F6016081718182819381042DA3010E948A
:100E1000E40B6C01F981FC87F0FF02C0F3FF06C010
:100E200091FC06C092FE06C000E205C00DE203C0C0
:100E30000BE201C000E08C858C7019F001115AC2E0
:100E40009BC297FE10C04C0CFC85F4FF04C08A8145
:100E5000813309F44A94141474F528E0241578F5C4
:100E600088E0482E2CC096FC2AC0812F90E08C157B
:100E70009D059CF03CEFC3163FEFD30674F0892D1F
:100E80008068982E0AC0E2E0F0E0EC0FFD1FE10F51
:100E9000F11D8081803319F411501111F4CF97FEA8
:100EA0000EC044244394410E812F90E0C816D90609
:100EB0002CF41C1904C04424439401C010E097FE94
:100EC00006C01C141D0434F4C601019605C085E05B
:100ED00090E002C081E090E001110196112331F011
:100EE000212F30E02F5F3F4F820F931F252D30E0E1
:100EF0008217930714F4581A01C0512C892D897058
:100F000049F4552039F0B70180E290E00E94D20CFC
:100F10005A94F7CF002329F0B701802F90E00E9468
:100F2000D20C93FC09C0552039F0B70180E390E062
:100F30000E94D20C5A94F7CF97FE4CC04601D7FEC0
:100F400002C0812C912CC60188199909F301E80F80
:100F5000F91FFE87ED87960124193109388B2F87F9
:100F6000012F10E01195019511093FEF83169306AB
:100F700029F4B7018EE290E00E94D20CC814D90483
:100F80004CF08F8598898815990524F4ED85FE85A8
:100F9000818101C080E3F1E08F1A91082D853E85A3
:100FA0002F5F3F4F3E872D87801691062CF0B701AB
:100FB00090E00E94D20CD9CFC814D90441F49A8190
:100FC000963320F4953319F43C8534FF81E3B7015F
:100FD00090E04EC08A81813319F09C859F7E9C876A
:100FE000B70190E00E94D20C111105C094FC18C00A
:100FF00085E690E017C0B7018EE290E00E94D20C27
:101000001E5F82E001E0080FF301E80FF11D80810F
:10101000B70190E00E94D20C802F0113F3CFE6CFEE
:1010200085E490E0B7010E94D20CD7FC06C0C11441
:10103000D10441F4EC85E4FF05C0D194C194D108FA
:101040008DE201C08BE2B70190E00E94D20C80E3F8
:101050002AE0C216D1042CF08F5FFAE0CF1AD10833
:10106000F7CFB70190E00E94D20CB701C601C0963D
:101070000E94D20C54C1833631F0833779F0833526
:1010800009F056C020C0560132E0A30EB11CF60193
:101090008081898301E010E0630112C05601F2E013
:1010A000AF0EB11CF601C080D18096FE03C0612F47
:1010B00070E002C06FEF7FEFC6010E94C70C8C0189
:1010C000F92DFF7714C0560122E0A20EB11CF601E3
:1010D000C080D18096FE03C0612F70E002C06FEF28
:1010E0007FEFC6010E94BC0C8C01F92DF0689F2E89
:1010F000F3FD1AC0852D90E008171907A8F4B70171
:1011000080E290E00E94D20C5A94F4CFF60197FC52
:10111000859197FE81916F01B70190E00E94D20CFA
:1011200051105A94015011090115110579F7F7C0B2
:10113000843611F0893661F5560197FE09C024E026
:10114000A20EB11CF60160817181828193810AC077
:10115000F2E0AF0EB11CF60160817181072E000C28
:10116000880B990BF92DFF769F2E97FF09C090955C
:101170008095709561957F4F8F4F9F4FF0689F2EA0
:101180002AE030E0A3010E94370DC82EC6183FC0E8
:10119000092D853721F40F7E2AE030E01DC0097F3C
:1011A0008F3691F018F4883559F0C3C0803719F0A4
:1011B000883711F0BEC0006104FF09C0046007C099
:1011C00094FE08C0066006C028E030E005C020E1BB
:1011D00030E002C020E132E0560107FF09C084E0A0
:1011E000A80EB11CF601608171818281938108C0D3
:1011F000F2E0AF0EB11CF6016081718180E090E0F9
:10120000A3010E94370DC82EC6180F77902E96FEA8
:101210000BC0092D0E7FC11650F494FE0AC092FC3B
:1012200008C0092D0E7E05C0DC2C092D03C0DC2C66
:1012300001C0D12E04FF0DC0FE01EC0DF11D808117
:10124000803311F4097E09C002FF06C0D394D39401
:1012500004C0802F867809F0D39403FD11C000FFED
:1012600006C01C2DD51480F4150D1D190DC0D51404
:1012700058F4B70180E290E00E94D20CD394F7CFEB
:10128000D51410F45D1801C0512C04FF10C0B70133
:1012900080E390E00E94D20C02FF17C001FD03C062
:1012A00088E790E002C088E590E0B7010CC0802F8D
:1012B000867859F001FF02C08BE201C080E207FD91
:1012C0008DE2B70190E00E94D20CC11638F4B7014C
:1012D00080E390E00E94D20C1150F7CFCA94F30142
:1012E000EC0DF11D8081B70190E00E94D20CC1107D
:1012F000F5CF15C0F4E0F51560F584E0581A93FEBB
:101300001FC0011127C02C8523FF2AC004E311E070
:10131000392D3071932EF8018491811124C055200C
:1013200009F4E4CCB70180E290E00E94D20C5A9418
:10133000F6CFF7018681978126C08FEF9FEF23C0FC
:10134000B70180E290E00E94D20C5A945110F8CF7D
:10135000D8CF512CB701802F90E00E94D20CD3CF70
:1013600008E311E0D5CF91108052B70190E00E94C0
:10137000D20C0F5F1F4FCFCF23E0251510F483E071
:10138000BDCF512CC0CF60960FB6F894DEBF0FBE14
:10139000CDBFDF91CF911F910F91FF90EF90DF9024
:1013A000CF90BF90AF909F908F907F906F905F9005
:1013B0004F903F902F9008955058BB27AA270E9426
:1013C000F4090C94380B0E942A0B38F00E94310B60
:1013D00020F039F49F3F19F426F40C94270B0EF4F7
:1013E000E095E7FB0C94210BE92F0E94490B58F381
:1013F000BA17620773078407950720F079F4A6F5FA
:101400000C946B0B0EF4E0950B2EBA2FA02D0B0154
:10141000B90190010C01CA01A0011124FF27591B39
:1014200099F0593F50F4503E68F11A16F040A22F3F
:10143000232F342F4427585FF3CF469537952795B0
:10144000A795F0405395C9F77EF41F16BA0B620BAF
:10145000730B840BBAF09150A1F0FF0FBB1F661FF6
:10146000771F881FC2F70EC0BA0F621F731F841F39
:1014700048F4879577956795B795F7959E3F08F05F
:10148000B0CF9395880F08F09927EE0F9795879521
:1014900008950E94FD0A08F481E008950E94620AFE
:1014A0000C94380B0E94310B58F00E942A0B40F02C
:1014B00029F45F3F29F00C94210B51110C946C0B13
:1014C0000C94270B0E94490B68F39923B1F3552321
:1014D00091F3951B550BBB27AA2762177307840747
:1014E00038F09F5F5F4F220F331F441FAA1FA9F3DD
:1014F00035D00E2E3AF0E0E832D091505040E695CB
:10150000001CCAF72BD0FE2F29D0660F771F881F2B
:10151000BB1F261737074807AB07B0E809F0BB0B1E
:10152000802DBF01FF2793585F4F3AF09E3F510532
:1015300078F00C94210B0C946C0B5F3FE4F3983E15
:10154000D4F3869577956795B795F7959F5FC9F71B
:10155000880F911D9695879597F90895E1E0660F9C
:10156000771F881FBB1F621773078407BA0720F015
:10157000621B730B840BBA0BEE1F88F7E09508957E
:10158000E89409C097FB3EF490958095709561951D
:101590007F4F8F4F9F4F9923A9F0F92F96E9BB27D3
:1015A0009395F695879577956795B795F111F8CF4F
:1015B000FAF4BB0F11F460FF1BC06F5F7F4F8F4FBA
:1015C0009F4F16C0882311F096E911C0772321F0B0
:1015D0009EE8872F762F05C0662371F096E8862F48
:1015E00070E060E02AF09A95660F771F881FDAF79F
:1015F000880F9695879597F90895990F0008550FCC
:10160000AA0BE0E8FEEF16161706E807F907C0F088
:1016100012161306E407F50798F0621B730B840B90
:10162000950B39F40A2661F0232B242B252B21F46A
:1016300008950A2609F4A140A6958FEF811D811D0A
:10164000089597F99F6780E870E060E008959FEF44
:1016500080EC089500240A94161617061806090649
:10166000089500240A941216130614060506089518
:10167000092E0394000C11F4882352F0BB0F40F4A0
:10168000BF2B11F460FF04C06F5F7F4F8F4F9F4FE0
:10169000089557FD9058440F551F59F05F3F71F062
:1016A0004795880F97FB991F61F09F3F79F08795C9
:1016B0000895121613061406551FF2CF4695F1DF52
:1016C00008C0161617061806991FF1CF86957105E2
:1016D000610508940895E894BB2766277727CB0116
:1016E00097F908950E94FD0A08F48FEF08950E946B
:1016F0008A0B0C94380B0E942A0B38F00E94310B95
:1017000020F0952311F00C94210B0C94270B11243D
:101710000C946C0B0E94490B70F3959FC1F3950FCD
:1017200050E0551F629FF001729FBB27F00DB11D65
:10173000639FAA27F00DB11DAA1F649F6627B00DF5
:10174000A11D661F829F2227B00DA11D621F739FDE
:10175000B00DA11D621F839FA00D611D221F749FEC
:101760003327A00D611D231F849F600D211D822F33
:10177000762F6A2F11249F5750409AF0F1F088235A
:101780004AF0EE0FFF1FBB1F661F771F881F915087
:101790005040A9F79E3F510580F00C94210B0C940A
:1017A0006C0B5F3FE4F3983ED4F38695779567958D
:1017B000B795F795E7959F5FC1F7FE2B880F911DB1
:1017C0009695879597F90895283008F027E03327F4
:1017D000DA01990F311D87FD916000966105710551
:1017E00039F432602E5F3D9330E32A95E1F7089596
:1017F0009F3F30F080387105610509F03C5F3C5F28
:101800003D93913008F08068911DDF93CF931F9333
:101810000F93FF92EF92192F987F9695E92F969547
:101820009695E90FFF27EA56FE4F99273327EE24B6
:10183000FF24A701E70105900894079428F4360FC8
:10184000E71EF81E491F511D660F771F881F991F3D
:101850000694A1F70590079428F4E70EF81E491F97
:10186000561FC11D770F881F991F661F0694A1F789
:101870000590079428F4F80E491F561FC71FD11D65
:10188000880F991F661F771F0694A1F7059007948C
:1018900020F4490F561FC71FD81F990F661F771FC7
:1018A000881F0694A9F784911095177041F0D6957A
:1018B000C79557954795F794E7941A95C1F7ECE3C8
:1018C000F1E0689415901591359165919591059089
:1018D0007FE27395E118F10A430B560BC90BD0094F
:1018E000C0F7E10CF11E431F561FC91FD01D7EF427
:1018F000703311F48A95E6CFE894015030F0080F68
:101900000AF40027021708F4202F2395022F7A33B8
:1019100028F079E37D932A95E9F710C07D932A9505
:1019200089F6069497956795379517951794E1185A
:10193000F10A430B560BC90BD00998F023957E9101
:1019400073957A3308F070E37C932013B8F77E9197
:1019500070617D9330F0839571E37D9370E32A95F8
:10196000E1F71124EF90FF900F911F91CF91DF913C
:10197000992787FD90950895FC010590615070406E
:101980000110D8F7809590958E0F9F1F0895FC0148
:101990006150704001900110D8F7809590958E0F9E
:1019A0009F1F08950F931F93CF93DF93FB01238114
:1019B00021FD03C08FEF9FEF2CC022FF16C0468190
:1019C0005781248135814217530744F4A081B181A6
:1019D0009D012F5F3F4F318320838C932681378178
:1019E0002F5F3F4F3783268314C08B01EC01FB012F
:1019F0000084F185E02D1995892BE1F6D801169622
:101A00008D919C911797019617969C938E9316979C
:101A1000CE01DF91CF911F910F9108950F931F93E6
:101A2000CF93DF93CDB7DEB72E970FB6F894DEBF16
:101A30000FBECDBF8C0186E08C831A8309838FEFA4
:101A40009FE79E838D83CE0101960E943606EF812B
:101A5000F885E00FF11F10822E960FB6F894DEBFC6
:101A60000FBECDBFDF91CF911F910F910895FA0165
:101A7000AA27283051F1203181F1E8946F936E7FCD
:101A80006E5F7F4F8F4F9F4FAF4FB1E03ED0B4E0BE
:101A90003CD0670F781F891F9A1FA11D680F791FFF
:101AA0008A1F911DA11D6A0F711D811D911DA11D10
:101AB00020D009F468943F912AE0269F1124301920
:101AC000305D3193DEF6CF010895462F4770405DBB
:101AD0004193B3E00FD0C9F7F6CF462F4F70405D6A
:101AE0004A3318F0495D31FD4052419302D0A9F7C5
:101AF000EACFB4E0A6959795879577956795BA95BF
:101B0000C9F700976105710508959B01AC010A2E84
:101B100006945795479537952795BA95C9F7620F5B
:0E1B2000731F841F951FA01D0895F894FFCF1A
:101B2E0005040000E04003000200020002000A006B
:101B3E000A000500881302000A4E69766561752059
:101B4E00616C6572746520676C6F62616C3A2564B6
:101B5E000A000A54656E73696F6E204144433A2041
:101B6E00256620560A000A56616C6575722070480B
:101B7E003A202566200A000A415454454E54494FD6
:101B8E004E3A2056616C657572206475207048203F
:101B9E006E6F6E2076616C6964650A000A4C652072
:101BAE006E69766561752064616C6572746520730B
:101BBE006F6E6465203120706173736520646520DB
:101BCE00424153206120484155540A000A4C652079
:101BDE006E69766561752064616C657274652073DB
:101BEE006F6E6465203120706173736520646520AB
:101BFE00484155542061204241530A000A4C666CFC
:101C0E006167706F6C6C2025640A000A4C6120734A
:101C1E006F6E64652031206E612070617320726575
:101C2E0063752064652061636B20646520736F6E3D
:101C3E00646520322064616E73206C652064656C6F
:101C4E0061692070726573637269740A000A547256
:101C5E006F70206465737361697320646520636FB0
:101C6E006D6D3A206F6E2072656A65747465206CB6
:101C7E0065746174206465206C6120736F6E646599
:101C8E00203220706F7572206C696E7374616E7481
:101C9E000A000A526563657074696F6E2064756E12
:101CAE00206D65737361676520776972656C657306
:101CBE00730A000A526563657074696F6E206E69EF
:101CCE007665617520616C6572746520736F6E64E4
:101CDE006520323A20484155540A000A5265636520
:101CEE007074696F6E206E697665617520616C65C2
:101CFE0072746520736F6E646520323A20424153D0
:101D0E000A000A526563657074696F6E206E69769B
:101D1E0065617520616C6572746520736F6E6465A4
:101D2E0020323A20494E44455445524D494E450ABB
:021D3E000000A3
:00000001FF
