:100000000C941B010C943C010C943C010C943C019D
:100010000C943C010C943C010C943C010C943C016C
:100020000C943C010C943C010C943C010C943C015C
:100030000C943C010C943C010C943C010C943C014C
:100040000C943C010C94A9010C943C010C943C01CF
:100050000C943C010C943C010C943C010C943C012C
:100060000C943C010C943C010C943C010C943C011C
:100070000C943C010C9484020C943C010C943C01C3
:100080000C94C0010C943C010C943C010C943C0178
:100090000C943C010C943C010C943C010C943C01EC
:1000A0000C943C010C943C010C943C010C943C01DC
:1000B0000C943C010C943C010C943C010C943C01CC
:1000C0000C943C010C943C010C943C010C943C01BC
:1000D0000C943C010C943C010C943C010C943C01AC
:1000E0000C943C010C943C010C943C010C943C019C
:1000F0000C943C010C943C010C943C010C943C018C
:100100000C943C010C943C010C943C010C943C017B
:100110000C943C010C943C010C943C010C943C016B
:100120000C943C010C943C010C943C010C943C015B
:100130000C943C016E616E00696E660000407A109E
:10014000F35A00A0724E18090010A5D4E80000E888
:100150007648170000E40B54020000CA9A3B0000E6
:1001600000E1F505000080969800000040420F0075
:100170000000A08601000000102700000000E80336
:10018000000000006400000000000A000000000001
:100190000100000000002C76D888DC674F0823DFC0
:1001A000C1DFAE59E1B1B796E5E3E453C63AE65193
:1001B000997696E8E6C28426EB898C9B62ED407CBA
:1001C0006FFCEFBC9C9F40F2BAA56FA5F490055A56
:1001D0002AF75C936B6CF9676DC11BFCE0E40D477B
:1001E000FEF520E6B500D0ED902E0300943577059E
:1001F0000080841E080000204E0A000000C80C3356
:100200003333330F986E12831141EF8D2114893BE4
:10021000E65516CFFEE6DB18D1844B381BF77C1D64
:10022000901DA4BBE424203284725E228100C9F1B7
:1002300024ECA1E53D2711241FBECFEFD1E8DEBF9E
:10024000CDBF00E00CBF13E0A0E0B2E0EAEAFAE1C3
:1002500000E00BBF02C007900D92A63EB107D9F790
:1002600025E0A6EEB3E001C01D92A031B207E1F790
:100270000E94E2030C94530D0C94000093E09093C1
:100280004201909141019F719830D9F780934201CA
:10029000909141019F718913FBCF0895809166046D
:1002A000823009F451C080914F0183FF41C05091C9
:1002B0007B0180910F05811125C040E0252F30E0A2
:1002C000842F90E02817390754F0FC01E058FE4FC6
:1002D0006081FC01EA51FC4F60834F5FF1CF86EEF5
:1002E00093E090938B0480938A0450938C04F901DB
:1002F000EA51FC4F808180938D04809147018A559B
:1003000080938E0480914F01886080934F0180918B
:100310004C018F7780934C0180914C0180688093D1
:100320004C0186E00E943E0181E080930F05089514
:1003300080914F0186FF08C080914F0180648093B7
:100340004F0186E00C943E0108952E98299A2D9A2B
:1003500008951F920F920FB60F9211248F939F93BF
:1003600080918204909183040196909383048093FA
:1003700082049F918F910F900FBE0F901F90189540
:100380001F920F920FB60F9211242F933F934F930A
:100390005F938F939F9380918804909189049C012F
:1003A0002F5F3F4F309389042093880420911402DB
:1003B00030911502821793073CF010928904109235
:1003C000880481E080937D04209186043091870425
:1003D000C90101969093870480938604409112028C
:1003E00050911302809168044217530764F48823E4
:1003F00061F010928704109286041092680481E0E4
:100400008093790408C0811106C01092870410926D
:1004100086041092790480918404909185049C0153
:100420002F5F3F4F30938504209384042091120264
:10043000309113022817390774F4809167048823D8
:1004400051F010928504109284041092670481E0A8
:10045000809378040AC080917A04811106C01092BA
:100460008504109284041092780480917704882384
:10047000D1F080918004909181049C012F5F3F4FC7
:100480003093810420938004209110023091110256
:100490002817390764F4109281041092800481E0D7
:1004A0008093730404C010928104109280048091A0
:1004B00076048823D1F080917E0490917F049C0182
:1004C0002F5F3F4F30937F0420937E0420910E02D4
:1004D00030910F022817390764F410927F041092AC
:1004E0007E0481E08093720404C010927F04109215
:1004F0007E049F918F915F914F913F912F910F902B
:100500000FBE0F901F9018951F920F920FB60F926B
:1005100011240BB60F928F93EF93FF93EAE7F0E06D
:1005200080818F7E808381E080937C04FF91EF91B6
:100530008F910F900BBE0F900FBE0F901F901895CC
:10054000009721F42E9A299A2D98089581309105CB
:1005500019F42E9A299806C0029711F40C94A5015B
:100560002E9A299A2D9A0895CF92DF92EF92FF92B8
:100570006B017C0120E030E040EE50E40E94070A6D
:1005800087FF0EC020E030E040EC50E4C701B60128
:100590000E94300B181624F42E9A299A2D9820C008
:1005A00020E030E040EE50E4C701B6010E94300B7D
:1005B00018161CF42E9A299812C020E030E040EC66
:1005C00050E4C701B6010E94070A87FF06C0FF90EA
:1005D000EF90DF90CF900C94A5012E9A299A2D9A36
:1005E000FF90EF90DF90CF900895CF92DF92EF923F
:1005F000FF922AE939E941E251E40E94350B2AE9E8
:1006000039E949ED50E40E940C0A20E030E040E670
:1006100050E40E94350B6B017C0120E030E040E6A5
:1006200051E40E94300B18164CF020E030E0A90194
:10063000C701B6010E94070A87FF07C0C12CDD244D
:10064000DA948FE7E82E87E4F82EC701B601FF9011
:10065000EF90DF90CF900895AFE6B0E01C92E1E715
:10066000F0E010821092800089E080938100109267
:1006700085001092840084E690E090938900809336
:100680008800109290008DE0809391001092950068
:100690001092940085E89EE19093990080939800D1
:1006A00082E08C938083089510BA80E480937C006C
:1006B0008FE880937A00089514B8269A259A219A93
:1006C0008FEF85B90895809178006091790070E08E
:1006D000762F662766277370682B072E000C880B11
:1006E000990B0E94800A20E030E040E85AE30E9423
:1006F000350B23E333E343E550E40E94350B2DEC47
:100700003CEC4CEC5DE30E949B090895CF93DF9392
:10071000CDB7DEB7DA950FB6F894DEBF0FBECDBF0A
:10072000AE014A5F5E4FFA0161917191AF01CE0156
:1007300001960E94CC0C80E0E1E0F0E0EC0FFD1FA0
:10074000E80FF11D9081992341F09093CE00909194
:10075000C80095FFFCCF8F5FEFCFD3950FB6F8940D
:10076000DEBF0FBECDBFDF91CF9108951092CD00B7
:1007700085E38093CC001092C80088E18093C90083
:1007800086E08093CA000895F89410920F050FB682
:10079000F894A89580916000886180936000109221
:1007A00060000FBE0E94B6030E945C030E945403C7
:1007B0000E942C0378940895EAE7F0E08081806439
:1007C000808308950E94C40333243394CC24C394BB
:1007D000D12CC2E0D0E007EB13E090E9E92E93E0E2
:1007E000F92E0E944E0180917004909171040E9434
:1007F000A002609102027091030280910402909124
:1008000005020E94B40280917D04882321F0109299
:100810007D040E94DC0380917C04882309F4A5C038
:1008200010927C040E946303B62EA72E982E892E68
:10083000862F9A2DA92DB82D80936C0490936D046A
:10084000A0936E04B0936F04A5019401652F742FDB
:10085000832F922F0E94F50260930202709303028D
:1008600080930402909305028F929F92AF92BF9261
:1008700086E192E09F938F930E9486038091050208
:100880008F93809104028F93809103028F938091C4
:1008900002028F938AE292E09F938F930E948603D5
:1008A0008090020290900302A0900402B090050292
:1008B0008DB79EB70C960FB6F8949EBF0FBE8DBF36
:1008C00020E03FEF4FE757E4C501B4010E94070A5B
:1008D000811109C08BE392E09F938F930E9486035E
:1008E0000F900F9042C06091010270E080E090E0B4
:1008F0000E94800A2B013C019B01AC01C501B4019F
:100900000E94070A87FF15C080910C0290910D028A
:10091000892B51F430927B0480E692E09F938F9371
:100920000E9486030F900F90D0920D02C0920C028D
:100930001CC0A3019201C501B4010E94300B18161E
:10094000A4F480910C0290910D02019751F4309221
:100950007B0480E992E09F938F930E9486030F901F
:100960000F9010920D0210920C0210927B043092A4
:10097000680480917B0410927B0480917904882321
:1009800031F11092790410926804D0930902C09357
:10099000080280EC92E09F938F930E9486038091DF
:1009A0006B0491E0980F90936B040F900F909091CF
:1009B0000002891760F030926A0410926B0482E0A2
:1009C00093E09F938F930E9486030F900F908091E6
:1009D0007804882371F01092780410926704809153
:1009E0006804811106C080917B04811102C030929D
:1009F0007B0480910F05813009F06CC087E493E09F
:100A00009F938F930E9486030F900F9080916904AB
:100A1000882319F180910602909107028330910595
:100A2000F9F0019731F580916804882311F1109253
:100A3000680480910A0290910B02909309028093BE
:100A400008028130910509F0B0C088E693E09F93D9
:100A50008F930E9486030F900F9010920F0509C08C
:100A600080916804811110920F05809167048111B3
:100A7000F4CF80916904882369F1809106029091F6
:100A800007028230910549F480916704882311F1AF
:100A90001092670410920F051DC0892BD9F4809124
:100AA0000A0290910B029093090280930802813010
:100AB000910501F588E693E09F938F930E9486034A
:100AC0000F900F903092670410920F0510926A04F5
:100AD00010926B0460916A0480910C0290910D0257
:100AE0006623B9F08130910569F4D0937104C09305
:100AF000700424C0892B19F4FF92EF92DFCF1F936B
:100B00000F93DCCF0097D1F410927104109270040F
:100B100015C08130910581F42091080230910902BD
:100B2000A901425051094230510508F04AC0909342
:100B300071048093700445C0009741F110927704CE
:100B40001092750410927304611119C0892BB9F4C5
:100B500080910802909109028130910581F43092D0
:100B6000770420917204222329F0D0937104C0935A
:100B7000700437CE909371048093700432CE10923B
:100B8000760410927404109272042BCE2091080205
:100B900030910902A901425051094230510568F4CF
:100BA000109271041092700408C0892B19F4FF92FE
:100BB000EF924FCF1F930F934CCF232B09F4A4CF69
:100BC000BDCF232B09F0BACF309277042091730464
:100BD000222329F0D0937104C0937004B7CFD09230
:100BE0007104C0927004B2CF2F923F924F925F92E5
:100BF0006F927F928F929F92AF92BF92CF92DF922D
:100C0000EF92FF920F931F93CF93DF93CDB7DEB791
:100C100060970FB6F894DEBF0FBECDBF7C011B01FD
:100C20006A01FC0117821682838181FF44C39E0101
:100C30002F5F3F4F3901F7019381F10193FD8591BA
:100C400093FF81911F01882309F431C3853239F460
:100C500093FD859193FF81911F01853239F4B7018E
:100C600090E00E94900C56016501E5CF10E0512CF8
:100C7000912CFFE1F915D8F08B3279F038F48032FD
:100C800079F08332A1F4F92DF0612EC08D3261F03C
:100C9000803369F4292D21602DC0392D3260932EC7
:100CA000892D8460982E2AC0E92DE86015C097FC34
:100CB0002DC020ED280F2A3088F496FE06C03AE0B9
:100CC000139F200D1124122F19C08AE0589E200D69
:100CD0001124522EE92DE0629E2E10C08E3231F486
:100CE00096FCE5C2F92DF0649F2E08C08C3621F4E5
:100CF000292D2068922E02C0883641F4F10193FD1F
:100D0000859193FF81911F018111B3CF9BEB980FC8
:100D1000933020F4992D9061805E07C09BE9980F75
:100D2000933008F066C1992D9F7E96FF16E09F7361
:100D3000992E853619F49064992E08C0863621F4D0
:100D4000392F3068932E02C01111115097FE07C041
:100D50001C3350F444244394410E27E00BC0183058
:100D600038F027E017E005C027E09CE3492E02C0D9
:100D7000212F412C560184E0A80EB11CF6016081A0
:100D8000718182819381042DA3010E94A20B6C01C9
:100D9000F981FC87F0FF02C0F3FF06C091FC06C09A
:100DA00092FE06C000E205C00DE203C00BE201C0E6
:100DB00000E08C858C7019F001115AC29BC297FE1D
:100DC00010C04C0CFC85F4FF04C08A81813309F407
:100DD0004A94141474F528E0241578F588E0482E18
:100DE0002CC096FC2AC0812F90E08C159D059CF0AC
:100DF0003CEFC3163FEFD30674F0892D8068982E20
:100E00000AC0E2E0F0E0EC0FFD1FE10FF11D808170
:100E1000803319F411501111F4CF97FE0EC0442401
:100E20004394410E812F90E0C816D9062CF41C196A
:100E300004C04424439401C010E097FE06C01C1473
:100E40001D0434F4C601019605C085E090E002C09F
:100E500081E090E001110196112331F0212F30E063
:100E60002F5F3F4F820F931F252D30E0821793078E
:100E700014F4581A01C0512C892D897049F4552059
:100E800039F0B70180E290E00E94900C5A94F7CFBD
:100E9000002329F0B701802F90E00E94900C93FC72
:100EA00009C0552039F0B70180E390E00E94900C12
:100EB0005A94F7CF97FE4CC04601D7FE02C0812C52
:100EC000912CC60188199909F301E80FF91FFE87D3
:100ED000ED87960124193109388B2F87012F10E0F7
:100EE0001195019511093FEF8316930629F4B70177
:100EF0008EE290E00E94900CC814D9044CF08F85CB
:100F000098898815990524F4ED85FE85818101C0B5
:100F100080E3F1E08F1A91082D853E852F5F3F4FCA
:100F20003E872D87801691062CF0B70190E00E9435
:100F3000900CD9CFC814D90441F49A81963320F487
:100F4000953319F43C8534FF81E3B70190E04EC03E
:100F50008A81813319F09C859F7E9C87B70190E040
:100F60000E94900C111105C094FC18C085E690E019
:100F700017C0B7018EE290E00E94900C1E5F82E0E5
:100F800001E0080FF301E80FF11D8081B70190E047
:100F90000E94900C802F0113F3CFE6CF85E490E000
:100FA000B7010E94900CD7FC06C0C114D10441F4D3
:100FB000EC85E4FF05C0D194C194D1088DE201C055
:100FC0008BE2B70190E00E94900C80E32AE0C21609
:100FD000D1042CF08F5FFAE0CF1AD108F7CFB70118
:100FE00090E00E94900CB701C601C0960E94900C40
:100FF00054C1833631F0833779F0833509F056C018
:1010000020C0560132E0A30EB11CF6018081898315
:1010100001E010E0630112C05601F2E0AF0EB11C16
:10102000F601C080D18096FE03C0612F70E002C03F
:101030006FEF7FEFC6010E94850C8C01F92DFF77C1
:1010400014C0560122E0A20EB11CF601C080D1806E
:1010500096FE03C0612F70E002C06FEF7FEFC60104
:101060000E947A0C8C01F92DF0689F2EF3FD1AC0B6
:10107000852D90E008171907A8F4B70180E290E0E9
:101080000E94900C5A94F4CFF60197FC859197FE3C
:1010900081916F01B70190E00E94900C51105A9419
:1010A000015011090115110579F7F7C0843611F0C7
:1010B000893661F5560197FE09C024E0A20EB11CE5
:1010C000F60160817181828193810AC0F2E0AF0EE6
:1010D000B11CF60160817181072E000C880B990B01
:1010E000F92DFF769F2E97FF09C0909580957095FA
:1010F00061957F4F8F4F9F4FF0689F2E2AE030E021
:10110000A3010E94F50CC82EC6183FC0092D8537D3
:1011100021F40F7E2AE030E01DC0097F8F3691F068
:1011200018F4883559F0C3C0803719F0883711F0AA
:10113000BEC0006104FF09C0046007C094FE08C07F
:10114000066006C028E030E005C020E130E002C0C3
:1011500020E132E0560107FF09C084E0A80EB11C6F
:10116000F601608171818281938108C0F2E0AF0E47
:10117000B11CF6016081718180E090E0A3010E94C2
:10118000F50CC82EC6180F77902E96FE0BC0092DB1
:101190000E7FC11650F494FE0AC092FC08C0092DBF
:1011A0000E7E05C0DC2C092D03C0DC2C01C0D12E25
:1011B00004FF0DC0FE01EC0DF11D8081803311F4A0
:1011C000097E09C002FF06C0D394D39404C0802FC7
:1011D000867809F0D39403FD11C000FF06C01C2DD2
:1011E000D51480F4150D1D190DC0D51458F4B70190
:1011F00080E290E00E94900CD394F7CFD51410F4C5
:101200005D1801C0512C04FF10C0B70180E390E0CD
:101210000E94900C02FF17C001FD03C088E790E018
:1012200002C088E590E0B7010CC0802F867859F0A5
:1012300001FF02C08BE201C080E207FD8DE2B70131
:1012400090E00E94900CC11638F4B70180E390E062
:101250000E94900C1150F7CFCA94F301EC0DF11DD0
:101260008081B70190E00E94900CC110F5CF15C0AD
:10127000F4E0F51560F584E0581A93FE1FC00111E3
:1012800027C02C8523FF2AC004E311E0392D3071DB
:10129000932EF8018491811124C0552009F4E4CCE7
:1012A000B70180E290E00E94900C5A94F6CFF701CB
:1012B0008681978126C08FEF9FEF23C0B70180E220
:1012C00090E00E94900C5A945110F8CFD8CF512C36
:1012D000B701802F90E00E94900CD3CF08E311E07B
:1012E000D5CF91108052B70190E00E94900C0F5F13
:1012F0001F4FCFCF23E0251510F483E0BDCF512C35
:10130000C0CF60960FB6F894DEBF0FBECDBFDF91A1
:10131000CF911F910F91FF90EF90DF90CF90BF90F2
:10132000AF909F908F907F906F905F904F903F9085
:101330002F9008955058BB27AA270E94B2090C94F9
:10134000F60A0E94E80A38F00E94EF0A20F039F409
:101350009F3F19F426F40C94E50A0EF4E095E7FBA0
:101360000C94DF0AE92F0E94070B58F3BA176207A3
:1013700073078407950720F079F4A6F50C94290BE0
:101380000EF4E0950B2EBA2FA02D0B01B9019001A0
:101390000C01CA01A0011124FF27591B99F0593FE4
:1013A00050F4503E68F11A16F040A22F232F342F2C
:1013B0004427585FF3CF469537952795A795F0407A
:1013C0005395C9F77EF41F16BA0B620B730B840B8F
:1013D000BAF09150A1F0FF0FBB1F661F771F881F47
:1013E000C2F70EC0BA0F621F731F841F48F487959F
:1013F00077956795B795F7959E3F08F0B0CF939591
:10140000880F08F09927EE0F9795879508950E9409
:10141000BB0A08F481E008950E94200A0C94F60AA1
:101420000E94EF0A58F00E94E80A40F029F45F3F5A
:1014300029F00C94DF0A51110C942A0B0C94E50A44
:101440000E94070B68F39923B1F3552391F3951B81
:10145000550BBB27AA2762177307840738F09F5FD5
:101460005F4F220F331F441FAA1FA9F335D00E2E42
:101470003AF0E0E832D091505040E695001CCAF7AF
:101480002BD0FE2F29D0660F771F881FBB1F261772
:1014900037074807AB07B0E809F0BB0B802DBF0149
:1014A000FF2793585F4F3AF09E3F510578F00C9418
:1014B000DF0A0C942A0B5F3FE4F3983ED4F3869541
:1014C00077956795B795F7959F5FC9F7880F911D39
:1014D0009695879597F90895E1E0660F771F881F25
:1014E000BB1F621773078407BA0720F0621B730BD8
:1014F000840BBA0BEE1F88F7E0950895E89409C0B5
:1015000097FB3EF490958095709561957F4F8F4F36
:101510009F4F9923A9F0F92F96E9BB279395F6954C
:10152000879577956795B795F111F8CFFAF4BB0FCA
:1015300011F460FF1BC06F5F7F4F8F4F9F4F16C02E
:10154000882311F096E911C0772321F09EE8872FB8
:10155000762F05C0662371F096E8862F70E060E074
:101560002AF09A95660F771F881FDAF7880F9695ED
:10157000879597F90895990F0008550FAA0BE0E891
:10158000FEEF16161706E807F907C0F01216130645
:10159000E407F50798F0621B730B840B950B39F485
:1015A0000A2661F0232B242B252B21F408950A26EB
:1015B00009F4A140A6958FEF811D811D089597F92B
:1015C0009F6780E870E060E008959FEF80EC0895E9
:1015D00000240A9416161706180609060895002412
:1015E0000A9412161306140605060895092E03948C
:1015F000000C11F4882352F0BB0F40F4BF2B11F400
:1016000060FF04C06F5F7F4F8F4F9F4F089557FD5E
:101610009058440F551F59F05F3F71F04795880F60
:1016200097FB991F61F09F3F79F0879508951216F7
:1016300013061406551FF2CF4695F1DF08C01616A3
:1016400017061806991FF1CF869571056105089454
:101650000895E894BB2766277727CB0197F908956B
:101660000E94BB0A08F48FEF08950E94480B0C9467
:10167000F60A0E94E80A38F00E94EF0A20F095234B
:1016800011F00C94DF0A0C94E50A11240C942A0B37
:101690000E94070B70F3959FC1F3950F50E0551F03
:1016A000629FF001729FBB27F00DB11D639FAA27B7
:1016B000F00DB11DAA1F649F6627B00DA11D661F06
:1016C000829F2227B00DA11D621F739FB00DA11D27
:1016D000621F839FA00D611D221F749F3327A00DE1
:1016E000611D231F849F600D211D822F762F6A2F7D
:1016F00011249F5750409AF0F1F088234AF0EE0FE2
:10170000FF1FBB1F661F771F881F91505040A9F70E
:101710009E3F510580F00C94DF0A0C942A0B5F3F2A
:10172000E4F3983ED4F3869577956795B795F7954A
:10173000E7959F5FC1F7FE2B880F911D96958795C2
:1017400097F90895283008F027E03327DA01990F38
:10175000311D87FD916000966105710539F4326095
:101760002E5F3D9330E32A95E1F708959F3F30F0D7
:1017700080387105610509F03C5F3C5F3D93913015
:1017800008F08068911DDF93CF931F930F93FF9212
:10179000EF92192F987F9695E92F96959695E90FD8
:1017A000FF27EA56FE4F99273327EE24FF24A7018F
:1017B000E70105900894079428F4360FE71EF81EF9
:1017C000491F511D660F771F881F991F0694A1F7A7
:1017D0000590079428F4E70EF81E491F561FC11DF7
:1017E000770F881F991F661F0694A1F7059007942D
:1017F00028F4F80E491F561FC71FD11D880F991FC7
:10180000661F771F0694A1F70590079420F4490FEF
:10181000561FC71FD81F990F661F771F881F069472
:10182000A9F784911095177041F0D695C7955795F3
:101830004795F794E7941A95C1F7ECE3F1E06894C3
:101840001590159135916591959105907FE273956D
:10185000E118F10A430B560BC90BD009C0F7E10C94
:10186000F11E431F561FC91FD01D7EF4703311F4A3
:101870008A95E6CFE894015030F0080F0AF400276B
:10188000021708F4202F2395022F7A3328F079E3EA
:101890007D932A95E9F710C07D932A9589F60694E1
:1018A00097956795379517951794E118F10A430BAB
:1018B000560BC90BD00998F023957E9173957A3316
:1018C00008F070E37C932013B8F77E9170617D93EC
:1018D00030F0839571E37D9370E32A95E1F711244D
:1018E000EF90FF900F911F91CF91DF91992787FD86
:1018F00090950895FC010590615070400110D8F753
:10190000809590958E0F9F1F0895FC016150704047
:1019100001900110D8F7809590958E0F9F1F089524
:101920000F931F93CF93DF93FB01238121FD03C00E
:101930008FEF9FEF2CC022FF16C046815781248174
:1019400035814217530744F4A081B1819D012F5F77
:101950003F4F318320838C93268137812F5F3F4F08
:101960003783268314C08B01EC01FB010084F185D1
:10197000E02D1995892BE1F6D80116968D919C9151
:101980001797019617969C938E931697CE01DF9129
:10199000CF911F910F9108950F931F93CF93DF93D2
:1019A000CDB7DEB72E970FB6F894DEBF0FBECDBF12
:1019B0008C0186E08C831A8309838FEF9FE79E83D7
:1019C0008D83CE0101960E94F405EF81F885E00F2A
:1019D000F11F10822E960FB6F894DEBF0FBECDBF5A
:1019E000DF91CF911F910F910895FA01AA27283016
:1019F00051F1203181F1E8946F936E7F6E5F7F4FDC
:101A00008F4F9F4FAF4FB1E03ED0B4E03CD0670F57
:101A1000781F891F9A1FA11D680F791F8A1F911DAA
:101A2000A11D6A0F711D811D911DA11D20D009F4FA
:101A300068943F912AE0269F11243019305D31933C
:101A4000DEF6CF010895462F4770405D4193B3E025
:101A50000FD0C9F7F6CF462F4F70405D4A3318F0CC
:101A6000495D31FD4052419302D0A9F7EACFB4E07D
:101A7000A6959795879577956795BA95C9F7009735
:101A80006105710508959B01AC010A2E06945795D6
:101A9000479537952795BA95C9F7620F731F841F2D
:0A1AA000951FA01D0895F894FFCFD4
:101AAA0005040000E04003000200020002000A00F0
:101ABA000A00050002000A54656E73696F6E2041C0
:101ACA0044433A20256620560A000A56616C657519
:101ADA00722070483A202566200A000A415454456B
:101AEA004E54494F4E3A2056616C657572206475A2
:101AFA00207048206E6F6E2076616C6964650A00FA
:101B0A000A4C65206E69766561752064616C657240
:101B1A00746520736F6E646520312070617373651C
:101B2A0020646520424153206120484155540A00EF
:101B3A000A4C65206E69766561752064616C657210
:101B4A00746520736F6E64652031207061737365EC
:101B5A0020646520484155542061204241530A00BF
:101B6A000A4C6120736F6E64652031206E612070AB
:101B7A00617320726563752064652061636B2064FC
:101B8A006520736F6E646520322064616E73206C09
:101B9A00652064656C61692070726573637269742B
:101BAA000A000A54726F7020646573736169732046
:101BBA00646520636F6D6D3A206F6E2072656A6589
:101BCA00747465206C65746174206465206C61208E
:101BDA00736F6E6465203220706F7572206C696E47
:101BEA007374616E740A000A526563657074696F72
:101BFA006E2064756E206D65737361676520776901
:101C0A0072656C6573730A000A526563657074695C
:101C1A006F6E206E697665617520616C6572746598
:101C2A0020736F6E646520323A20484155540A0089
:101C3A000A526563657074696F6E206E69766561B4
:101C4A007520616C6572746520736F6E64652032ED
:101C5A003A204241530A000A526563657074696FFB
:101C6A006E206E697665617520616C657274652097
:101C7A00736F6E646520323A20494E44455445528A
:061C8A004D494E450A0021
:00000001FF
