:100000000C949A000C94BB000C94BB000C94BB00A5
:100010000C94BB000C94BB000C94BB000C94BB0074
:100020000C94BB000C94BB000C94BB000C94BB0064
:100030000C94BB000C94BB000C94BB000C94BB0054
:100040000C94BB000C9445020C94BB000C94BB00B8
:100050000C94BB000C94BB000C94BB000C94BB0034
:100060000C94BB000C94BB000C94BB000C94BB0024
:100070000C94BB000C9424020C94BB000C94BB00A9
:100080000C9448010C94BB000C94BB000C94BB0076
:100090000C94BB000C94BB000C94BB000C94BB00F4
:1000A0000C94BB000C94BB000C94BB000C94BB00E4
:1000B0000C94BB000C94BB000C94BB000C94BB00D4
:1000C0000C94BB000C94BB000C94BB000C94BB00C4
:1000D0000C94BB000C94BB000C94BB000C94BB00B4
:1000E0000C94BB000C94BB000C94BB000C94BB00A4
:1000F0000C94BB000C94BB000C94BB000C94BB0094
:100100000C94BB000C94BB000C94BB000C94BB0083
:100110000C94BB000C94BB000C94BB000C94BB0073
:100120000C94BB000C94BB000C94BB000C94BB0063
:100130000C94BB0011241FBECFEFD1E8DEBFCDBFB2
:1001400000E00CBF15E0A0E0B2E0E8EEF8E100E06E
:100150000BBF02C007900D92AA3CB107D9F726E069
:10016000AAECB5E001C01D92A63FB207E1F70E94DC
:100170007D040C94720C0C94000093E09093420167
:10018000909141019F719830D9F7809342019091ED
:1001900041019F718913FBCF08951F93CF93DF9384
:1001A000D82F192FC62F89E00E94BD008FEF8093B2
:1001B0004F01C09380019D2FED2FF12FA1E8B1E0F9
:1001C0008E2F891B8C1718F481918D93F9CF83E0C2
:1001D00080934A0682E080934201DF91CF911F9184
:1001E000089580914A06823009F451C080914F01F0
:1001F00083FF41C050917B018091F506811125C09C
:1002000040E0252F30E0842F90E02817390754F084
:10021000FC01E058FE4F6081FC01E653FA4F608319
:100220004F5FF1CF8AEC95E0909371068093700652
:1002300050937206F901E653FA4F8081809373065A
:10024000809147018A558093740680914F018860A0
:1002500080934F0180914C018F7780934C01809166
:100260004C01806880934C0186E00E94BD0081E0D3
:100270008093F506089580914F0186FF08C0809114
:100280004F01806480934F0186E00C94BD00089577
:100290001F920F920FB60F9211242F933F938F93BB
:1002A0009F9380916E0690916F069C012F5F3F4F48
:1002B00030936F0620936E0620911602309117023C
:1002C000821793073CF010926F0610926E0681E041
:1002D0008093620680916C0690916D069C012F5F61
:1002E0003F4F30936D0620936C062091120230919F
:1002F0001302281739073CF410926D0610926C0611
:1003000081E08093560680916C0690916D069C0169
:100310002F5F3F4F30936D0620936C0620911202A1
:10032000309113022817390774F480914C06882302
:1003300051F010926D0610926C0610924C0681E0FE
:1003400080935E060AC080914C06811106C010920F
:100350006D0610926C0610925E0680916A0690916E
:100360006B069C012F5F3F4F30936B0620936A060C
:1003700020911202309113022817390774F48091EA
:100380004B06882351F010926B0610926A06109269
:100390004B0681E080935D060AC080915F06811163
:1003A00006C010926B0610926A0610925D0680914C
:1003B0005C068823D1F080916806909169069C01C3
:1003C0002F5F3F4F309369062093680620911002FB
:1003D000309111022817390764F4109269061092BF
:1003E000680681E08093580604C010926906109256
:1003F000680680915B068823D1F080916606909113
:1004000067069C012F5F3F4F309367062093660677
:1004100020910E0230910F022817390764F41092D0
:1004200067061092660681E08093570604C010921A
:100430006706109266069F918F913F912F910F90C2
:100440000FBE0F901F9018951F920F920FB60F922C
:1004500011240BB60F928F93EF93FF93EAE7F0E02E
:1004600080818F7E808381E080936106FF91EF9190
:100470008F910F900BBE0F900FBE0F901F9018958D
:100480009BB181E089278BB908951F920F920FB617
:100490000F9211240BB60F922F933F934F935F93BC
:1004A0006F937F938F939F93AF93BF93EF93FF933C
:1004B00080916406909165069C012F5F3F4F3093B9
:1004C000650620936406209114023091150282176C
:1004D000930734F010926506109264060E94400261
:1004E000FF91EF91BF91AF919F918F917F916F910C
:1004F0005F914F913F912F910F900BBE0F900FBEC8
:100500000F901F901895009719F480E49FE10AC09E
:100510008130910519F488EB9BE004C0029731F417
:1005200088EE93E090931502809314020895CF9281
:10053000DF92EF92FF926B017C0120E030E040EE11
:1005400050E40E94E00787FF0EC020E030E040EC5E
:1005500050E4C701B6010E940909181624F42E9A26
:10056000299A2D981CC020E030E040EE50E4C701ED
:10057000B6010E94090918161CF42E9A29980EC07B
:1005800020E030E040EC50E4C701B6010E94E007F3
:1005900087FF02C02E9801C02E9A299A2D9AFF90AB
:1005A000EF90DF90CF900895CF92DF92EF92FF927D
:1005B0002AE939E941E251E40E940E092AE939E9C0
:1005C00049ED50E40E94E50720E030E040E650E4C9
:1005D0000E940E096B017C0120E030E040E651E40E
:1005E0000E94090918164CF020E030E0A901C7016B
:1005F000B6010E94E00787FF07C0C12CDD24DA9412
:100600008FE7E82E87E4F82EC701B601FF90EF9040
:10061000DF90CF900895AFE6B0E01C92E1E7F0E004
:1006200010821092800089E08093810010928500F2
:100630001092840084E690E0909389008093880073
:10064000109290008DE0809391001092950010928E
:10065000940085E89EE1909399008093980082E051
:100660008C938083089510BA80E480937C008FE897
:1006700080937A00089514B81AB8269A259A219A78
:10068000509A15B81BB80895809178006091790050
:1006900070E0762F662766277370682B072E000C94
:1006A000880B990B0E94590820E030E040E85AE39B
:1006B0000E940E0923E333E343E550E40E940E0950
:1006C0002DEC3CEC4CEC5DE30E9474070895CF9355
:1006D000DF93CDB7DEB7DA950FB6F894DEBF0FBE65
:1006E000CDBFAE014A5F5E4FFA0161917191AF01DA
:1006F000CE0101960E948F0980E0E1E0F0E0EC0F6E
:10070000FD1FE80FF11D9081992341F09093CE00D9
:100710009091C80095FFFCCF8F5FEFCFD3950FB6B8
:10072000F894DEBF0FBECDBFDF91CF910895109238
:10073000CD0085E38093CC001092C80088E18093BF
:10074000C90086E08093CA000895F8941092F506D7
:100750000FB6F894A895809160008861809360003E
:10076000109260000FBE0E9497030E943B030E94FC
:1007700033030E940B0378940895EAE7F0E0808148
:10078000806480830895CF93DF939B01BA0154E680
:10079000E8E1F2E0D90101900D925A95E1F7F901F3
:1007A000EC59FF4F71836083E901CA59DF4F998388
:1007B000888366E670E0C9010E945F0788838DE741
:1007C00092E09F938F930E9467030F900F9081E0B8
:1007D000DF91CF910895CF92DF92EF92FF920F9326
:1007E0001F93CF93DF937C01EB016A01890144E6FB
:1007F00050E068E172E0CE010E947B09892BF9F498
:10080000FE01EC59FF4F808190E0F60191838083D7
:10081000FE01EB59FF4F808190E0F70191838083C7
:1008200067E670E0CE010E945F07811104C081E09D
:10083000F801808305C0F801108281E001C080E0EA
:10084000DF91CF911F910F91FF90EF90DF90CF90AC
:100850000895CF92DF92EF92FF920F931F93CF9361
:10086000DF93CDB7DEB7C756D1090FB6F894DEBF18
:100870000FBECDBF8C017B016A0160917006709143
:100880007106CE0101960E9488099601A701BE015A
:100890006F5F7F4FC8010E94EB03C959DF4F0FB64E
:1008A000F894DEBF0FBECDBFDF91CF911F910F91A6
:1008B000FF90EF90DF90CF900895CF93DF93CDB767
:1008C000DEB7C756D1090FB6F894DEBF0FBECDBF55
:1008D000AB01BE016F5F7F4F0E94C30367E6CE018D
:1008E00001960E94CD00C959DF4F0FB6F894DEBFC4
:1008F0000FBECDBFDF91CF9108950E94A50301E007
:1009000010E081E8282E83E0382EC2E0D0E098E99C
:10091000892E93E0992E2CEDA22E23E0B22E0E9478
:10092000F10080916306882321F0109263060E94F3
:10093000400280915406909155060E948302609176
:1009400002027091030280910402909105020E94BC
:100950009702809162068823A1F0109262060E949D
:10096000BD03809155068F93809154068F938AE83A
:1009700092E09F938F930E9467030F900F900F90C8
:100980000F9080916106882309F4B5C0109261062A
:100990000E944403F62EE72ED82EC92E862F9E2DB8
:1009A000AD2DBC2D8093500690935106A093520616
:1009B000B0935306A7019601652F742F832F922FB2
:1009C0000E94D40260930202709303028093040297
:1009D00090930502CF92DF92EF92FF9286EA92E027
:1009E0009F938F930E946703809105028F9380915C
:1009F00004028F93809103028F93809102028F9360
:100A00008CEB92E09F938F930E946703C090020249
:100A1000D0900302E0900402F09005028DB79EB7DB
:100A20000C960FB6F8949EBF0FBE8DBF20E03FEF2F
:100A30004FE757E4C701B6010E94E007811109C0E2
:100A40008FEC92E09F938F930E9467030F900F901B
:100A500044C06091010270E080E090E00E9459087B
:100A60002B013C019B01AC01C701B6010E94E007CC
:100A700087FF16C080910C0290910D02892B59F4CA
:100A800081E08093600686EF92E09F938F930E94AF
:100A900067030F900F9010930D0200930C021DC07E
:100AA000A3019201C701B6010E9409091816ACF40E
:100AB00080910C0290910D02019759F481E080938E
:100AC000600688E293E09F938F930E9467030F90E4
:100AD0000F9010920D0210920C02809160061F92EE
:100AE0008F9389E593E09F938F930E9467030F9004
:100AF0000F900F900F908091080290910902029739
:100B0000029798F580914C0681112FC080914B0679
:100B100081112BC080914E06811127C060E070E0EA
:100B200080910C0290910D020E945D0480914C0610
:100B30001F928F938AE693E09F938F930E9467039F
:100B400080914B061F928F933F922F920E946703D2
:100B500081E080934C06109260068DB79EB7089690
:100B60000FB6F8949EBF0FBE8DBF8091600688239C
:100B7000C9F080914C06811115C080914B068111FE
:100B800011C080914E0681110DC01092600660E088
:100B900070E080910C0290910D020E945D0481E052
:100BA00080934C0680915E06882319F110925E06B0
:100BB00010924C06D0930902C09308029F928F9224
:100BC0000E94670380914F0691E0980F90934F0623
:100BD0000F900F9090910002891758F081E0809358
:100BE0004E0610924F06BF92AF920E9467030F907D
:100BF0000F9080915D06882379F010925D06109227
:100C00004B0680914C06811107C0809160068111CE
:100C100003C081E0809360068091F506813009F081
:100C2000CCC083E294E09F938F930E9467034DE4CE
:100C300056E066E072E08AE092E00E9429040F909C
:100C40000F90882309F4ADC080914D0681110AC030
:100C500063E070E080910C0290910D020E945D04AF
:100C60001092F50680914D068823A1F0809106022E
:100C700090910702039771F480914C06882351F0FC
:100C800060E070E080910C0290910D020E945D0482
:100C90001092F50680914D068823A1F080910602FE
:100CA00090910702039771F480914B06882351F0CD
:100CB00061E070E080910C0290910D020E945D0451
:100CC0001092F50680914D06882389F180910602E5
:100CD00090910702019759F580914C06882339F1CC
:100CE00010924C0680910A0290910B029093090297
:100CF000809308028130910519F486E494E007C0DE
:100D0000892B19F480E794E002C089E994E09F936D
:100D10008F930E9467030F900F9062E070E08091C4
:100D20000C0290910D020E945D041092F5068091D4
:100D30004D068823B1F1809106029091070282301E
:100D4000910549F480914B06882359F110924B0686
:100D50001092F50626C0892B21F561E070E08091A4
:100D60000C0290910D020E945D0480910A02909104
:100D70000B0290930902809308028130910569F576
:100D800086E494E09F938F930E9467030F900F90E7
:100D900081E080934B061092F50610924E06109259
:100DA0004F064DE456E066E072E08AE092E00E9471
:100DB0002904811102C01092F50660914E068091BF
:100DC0000C0290910D026623B9F08130910569F40F
:100DD000D0935506C093540624C0892B19F480E79C
:100DE00094E0D0CF89E994E0CDCF0097D1F4109270
:100DF00055061092540615C08130910581F420915A
:100E0000080230910902A9014250510942305105AE
:100E100008F042C090935506809354063DC0009759
:100E200049F110925C0610925A0610925806611110
:100E30001AC0892BC1F48091080290910902813077
:100E4000910589F421E020935C0620915706222326
:100E500029F0D0935506C093540661CD9093550662
:100E6000809354065CCD10925B0610925906109246
:100E7000570655CD2091080230910902A901425030
:100E800051094230510520F4109255061092540633
:100E9000232B09F4ACCFC5CF232B19F621E02093E7
:100EA0005C0620915806222329F0D0935506C09362
:100EB0005406BFCF1093550600935406BACFDC01F9
:100EC000009779F0680F791F80E0A617B70741F007
:100ED0009D91E82FE927F0E0E653FB4F8081F5CFA5
:100EE000089580E008955058BB27AA270E948B07D9
:100EF0000C94CF080E94C10838F00E94C80820F066
:100F000039F49F3F19F426F40C94BE080EF4E095D2
:100F1000E7FB0C94B808E92F0E94E00858F3BA17D1
:100F2000620773078407950720F079F4A6F50C94FF
:100F300002090EF4E0950B2EBA2FA02D0B01B9017A
:100F400090010C01CA01A0011124FF27591B99F03F
:100F5000593F50F4503E68F11A16F040A22F232F4B
:100F6000342F4427585FF3CF469537952795A7959B
:100F7000F0405395C9F77EF41F16BA0B620B730B42
:100F8000840BBAF09150A1F0FF0FBB1F661F771FB3
:100F9000881FC2F70EC0BA0F621F731F841F48F468
:100FA000879577956795B795F7959E3F08F0B0CFF1
:100FB0009395880F08F09927EE0F979587950895D8
:100FC0000E94940808F481E008950E94F9070C94A7
:100FD000CF080E94C80858F00E94C10840F029F4C8
:100FE0005F3F29F00C94B80851110C9403090C943C
:100FF000BE080E94E00868F39923B1F3552391F3EA
:10100000951B550BBB27AA2762177307840738F077
:101010009F5F5F4F220F331F441FAA1FA9F335D0D4
:101020000E2E3AF0E0E832D091505040E695001C88
:10103000CAF72BD0FE2F29D0660F771F881FBB1F42
:10104000261737074807AB07B0E809F0BB0B802D20
:10105000BF01FF2793585F4F3AF09E3F510578F04C
:101060000C94B8080C9403095F3FE4F3983ED4F362
:10107000869577956795B795F7959F5FC9F7880F20
:10108000911D9695879597F90895E1E0660F771F72
:10109000881FBB1F621773078407BA0720F0621B03
:1010A000730B840BBA0BEE1F88F7E0950895E89454
:1010B00009C097FB3EF490958095709561957F4FA0
:1010C0008F4F9F4F9923A9F0F92F96E9BB2793954E
:1010D000F695879577956795B795F111F8CFFAF45E
:1010E000BB0F11F460FF1BC06F5F7F4F8F4F9F4F8F
:1010F00016C0882311F096E911C0772321F09EE8ED
:10110000872F762F05C0662371F096E8862F70E052
:1011100060E02AF09A95660F771F881FDAF7880F2C
:101120009695879597F90895990F0008550FAA0B82
:10113000E0E8FEEF16161706E807F907C0F01216EA
:101140001306E407F50798F0621B730B840B950BED
:1011500039F40A2661F0232B242B252B21F4089542
:101160000A2609F4A140A6958FEF811D811D0895DF
:1011700097F99F6780E870E060E008959FEF80EC4A
:10118000089500240A9416161706180609060895ED
:1011900000240A9412161306140605060895092E53
:1011A0000394000C11F4882352F0BB0F40F4BF2BC2
:1011B00011F460FF04C06F5F7F4F8F4F9F4F089502
:1011C00057FD9058440F551F59F05F3F71F04795F8
:1011D000880F97FB991F61F09F3F79F087950895DD
:1011E000121613061406551FF2CF4695F1DF08C0FC
:1011F000161617061806991FF1CF86957105610519
:1012000008940895E894BB2766277727CB0197F9C0
:1012100008950E94940808F48FEF08950E94210910
:101220000C94CF080E94C10838F00E94C80820F032
:10123000952311F00C94B8080C94BE0811240C945A
:1012400003090E94E00870F3959FC1F3950F50E0E9
:10125000551F629FF001729FBB27F00DB11D639F68
:10126000AA27F00DB11DAA1F649F6627B00DA11D0E
:10127000661F829F2227B00DA11D621F739FB00DB4
:10128000A11D621F839FA00D611D221F749F332724
:10129000A00D611D231F849F600D211D822F762FBD
:1012A0006A2F11249F5750409AF0F1F088234AF09A
:1012B000EE0FFF1FBB1F661F771F881F9150504006
:1012C000A9F79E3F510580F00C94B8080C940309CF
:1012D0005F3FE4F3983ED4F3869577956795B7958D
:1012E000F795E7959F5FC1F7FE2B880F911D9695A7
:1012F000879597F90895FB01DC0104C08D91019059
:10130000801921F441505040C8F7881B990B08956B
:10131000FB01DC0101900D920020E1F708950F938D
:101320001F93CF93DF93CDB7DEB72E970FB6F89408
:10133000DEBF0FBECDBF8C0186E08C831A8309838C
:101340008FEF9FE79E838D83CE0101960E94B8099F
:10135000EF81F885E00FF11F10822E960FB6F894FA
:10136000DEBF0FBECDBFDF91CF911F910F910895CA
:101370002F923F924F925F926F927F928F929F92A5
:10138000AF92BF92CF92DF92EF92FF920F931F9393
:10139000CF93DF93CDB7DEB72B970FB6F894DEBFB0
:1013A0000FBECDBF6C017B018A01FC011782168242
:1013B000838181FFCCC1CE0101963C01F60193816E
:1013C000F70193FD859193FF81917F01882309F4B3
:1013D000BAC1853239F493FD859193FF81917F01E4
:1013E000853229F4B60190E00E94D80BE7CF912C0A
:1013F000212C312CFFE1F315D8F08B3279F038F441
:10140000803279F08332A1F4232D20611DC08D320A
:1014100061F0803369F4232D216016C0832D826032
:10142000382EE32DE4603E2E2AC0F32DF8601DC057
:1014300037FC2DC020ED280F2A3040F08E32B9F451
:1014400036FC81C1232D2064322E19C036FE06C021
:101450008AE0989E200D1124922E11C0EAE02E9E63
:10146000200D1124222EF32DF0623F2E08C08C3661
:1014700021F4832D8068382E02C0883641F4F701AC
:1014800093FD859193FF81917F018111B3CF982FB7
:101490009F7D9554933028F40C5F1F4F9FE39983F1
:1014A0000DC0833631F0833771F0833509F059C0B0
:1014B00021C0F801808189830E5F1F4F88248394A7
:1014C000912C530113C02801F2E04F0E511CF8017A
:1014D000A080B18036FE03C0692D70E002C06FEFBE
:1014E0007FEFC5010E94CD0B4C018201F32DFF77E8
:1014F0003F2E16C0280122E0420E511CF801A080A8
:10150000B18036FE03C0692D70E002C06FEF7FEF3F
:10151000C5010E94C20B4C01F32DF0683F2E8201E1
:1015200033FC1BC0822D90E088169906B0F4B601FA
:1015300080E290E00E94D80B2A94F4CFF50137FCAA
:10154000859137FE81915F01B60190E00E94D80B32
:1015500021102A9421E0821A91088114910471F7D4
:10156000E8C0843611F0893641F5F80137FE07C02E
:1015700060817181828193810C5F1F4F08C06081FF
:101580007181072E000C880B990B0E5F1F4FF32DF6
:10159000FF763F2E97FF09C09095809570956195D5
:1015A0007F4F8F4F9F4FF0683F2E2AE030E0A3011E
:1015B0000E94140C882E861845C0853731F4232DDF
:1015C0002F7EB22E2AE030E025C0932D997FB92ED0
:1015D0008F36C1F018F4883579F0B5C0803719F02E
:1015E000883721F0B0C0E92FE061BE2EB4FE0DC0F7
:1015F000FB2DF460BF2E09C034FE0AC0292F2660DF
:10160000B22E06C028E030E005C020E130E002C084
:1016100020E132E0F801B7FE07C06081718182816C
:1016200093810C5F1F4F06C06081718180E090E064
:101630000E5F1F4FA3010E94140C882E8618FB2DED
:10164000FF773F2E36FE0DC0232D2E7FA22E89144C
:1016500058F434FE0BC032FC09C0832D8E7EA82EB8
:1016600005C0B82CA32C03C0B82C01C0B92CA4FE13
:101670000FC0FE01E80DF11D8081803321F49A2D09
:10168000997EA92E09C0A2FE06C0B394B39404C0EB
:101690008A2D867809F0B394A3FC11C0A0FE06C081
:1016A000B21488F4280C922C9B180EC0B21460F46B
:1016B000B60180E290E00E94D80BB394F7CFB21449
:1016C00018F42B1802C0982C212CA4FE10C0B601CF
:1016D00080E390E00E94D80BA2FE17C0A1FC03C0DB
:1016E00088E790E002C088E590E0B6010CC08A2D42
:1016F000867859F0A1FE02C08BE201C080E2A7FC0F
:101700008DE2B60190E00E94D80B891438F4B6013E
:1017100080E390E00E94D80B9A94F7CF8A94F3016B
:10172000E80DF11D8081B60190E00E94D80B811078
:10173000F5CF222009F442CEB60180E290E00E946B
:10174000D80B2A94F6CFF6018681978102C08FEFDD
:101750009FEF2B960FB6F894DEBF0FBECDBFDF9183
:10176000CF911F910F91FF90EF90DF90CF90BF909E
:10177000AF909F908F907F906F905F904F903F9031
:101780002F900895FC010590615070400110D8F72A
:10179000809590958E0F9F1F0895FC0161507040B9
:1017A00001900110D8F7809590958E0F9F1F089596
:1017B0000F931F93CF93DF93FB01238121FD03C080
:1017C0008FEF9FEF2CC022FF16C0468157812481E6
:1017D00035814217530744F4A081B1819D012F5FE9
:1017E0003F4F318320838C93268137812F5F3F4F7A
:1017F0003783268314C08B01EC01FB010084F18543
:10180000E02D1995892BE1F6D80116968D919C91C2
:101810001797019617969C938E931697CE01DF919A
:10182000CF911F910F910895FA01AA27283051F105
:10183000203181F1E8946F936E7F6E5F7F4F8F4F01
:101840009F4FAF4FB1E03ED0B4E03CD0670F781F60
:10185000891F9A1FA11D680F791F8A1F911DA11D45
:101860006A0F711D811D911DA11D20D009F468947E
:101870003F912AE0269F11243019305D3193DEF626
:10188000CF010895462F4770405D4193B3E00FD0DC
:10189000C9F7F6CF462F4F70405D4A3318F0495DC7
:1018A00031FD4052419302D0A9F7EACFB4E0A695AA
:1018B0009795879577956795BA95C9F700976105CC
:1018C000710508959B01AC010A2E06945795479522
:1018D00037952795BA95C9F7620F731F841F951F17
:0818E000A01D0895F894FFCF4C
:1018E80005040000E04003000200020002000A00B4
:1018F8000A0005008813020075574C6D704A396557
:101908006C46706E577265334D7742487A4441553C
:10191800746A5753596F61344F3553706444744E29
:10192800477239636E65566F6D4241354232347184
:101938005A4A484139706868636D376D4D4B427833
:10194800697A5A6A744E6F694E4C4963695752797D
:10195800436F554E665730633738464D004D6573B3
:10196800736167652073656E74000A0D4E6976654C
:10197800617520616C6572746520676C6F62616C5B
:101988003A25640A0D000A0D54656E73696F6E205E
:101998004144433A20256620560A0D000A0D566137
:1019A8006C6575722070483A202566200A0D000A79
:1019B8000D415454454E54494F4E3A2056616C657A
:1019C8007572206475207048206E6F6E2076616C89
:1019D8006964650A0D000A0D4C65206E69766561BB
:1019E800752064616C6572746520736F6E64652020
:1019F8003120706173736520646520424153206112
:101A080020484155540A0D000A4C65206E697665D8
:101A180061752064616C6572746520736F6E6465AE
:101A280020312070617373652064652048415554E6
:101A38002061204241530A0D000A0D4C666C616713
:101A4800706F6C6C2025640A0D000A0D697377614C
:101A58006974696E6741636B31203D2025640A0D06
:101A6800000A0D697377616974696E6741636B3247
:101A7800203D2025640A0D000A0D4C6120736F6E0D
:101A880064652031206E6120706173207265637512
:101A98002064652061636B20646520736F6E6465E4
:101AA80020322064616E73206C652064656C616906
:101AB8002070726573637269740A0D000A0D54729E
:101AC8006F70206465737361697320646520636F48
:101AD8006D6D3A206F6E2072656A65747465206C4E
:101AE80065746174206465206C6120736F6E646531
:101AF800203220706F7572206C696E7374616E7419
:101B08000A0D000A0D526563657074696F6E206472
:101B1800756E206D65737361676520776972656C92
:101B28006573730A0D000A0D526563657074696FF9
:101B38006E206E697665617520616C6572746520CA
:101B4800736F6E646520323A20484155540A0D007F
:101B58000A0D526563657074696F6E206E697665EB
:101B6800617520616C6572746520736F6E646520A1
:101B7800323A204241530A0D000A0D5265636570DE
:101B880074696F6E206E697665617520616C657227
:101B9800746520736F6E646520323A20494E44455F
:101BA8005445524D494E450A0D0000316253C4F563
:101BB800A697B988DBEA7D4C1F2E4372211087B6A1
:101BC800E5D4FACB98A93E0F5C6D86B7E4D542738D
:101BD80020113F0E5D6CFBCA99A8C5F4A796013089
:101BE80063527C4D1E2FB889DAEB3D0C5F6EF9C845
:101BF8009BAA84B5E6D7407122137E4F1C2DBA8B61
:101C0800D8E9C7F6A59403326150BB8AD9E87F4E5C
:101C18001D2C02336051C6F7A495F8C99AAB3C0D48
:101C28005E6F4170231285B4E7D67A4B1829BE8FB0
:101C3800DCEDC3F2A1900736655439085B6AFDCC28
:101C48009FAE80B1E2D344752617FCCD9EAF38090C
:101C58005A6B4574271681B0E3D2BF8EDDEC7B4A00
:101C6800192806376455C2F3A0914776251483B224
:101C7800E1D0FECF9CAD3A0B586904356657C0F1E8
:101C8800A293BD8CDFEE79481B2AC1F0A3920534DC
:101C9800675678491A2BBC8DDEEF82B3E0D14677C0
:0A1CA80024153B0A5968FFCE9DACDD
:00000001FF
