:100000000C949A000C94BB000C94BB000C94BB00A5
:100010000C94BB000C94BB000C94BB000C94BB0074
:100020000C94BB000C94BB000C94BB000C94BB0064
:100030000C94BB000C94BB000C94BB000C94BB0054
:100040000C94BB000C94BB000C94BB000C94BB0044
:100050000C94BB000C94BB000C94BB000C94BB0034
:100060000C94BB000C94BB000C94BB000C94BB0024
:100070000C94BB000C94BB000C94BB000C94BB0014
:100080000C94BB000C94BB000C94BB000C94BB0004
:100090000C94BB000C94BB000C94BB000C94BB00F4
:1000A0000C94BB000C94BB000C94BB000C94BB00E4
:1000B0000C94BB000C94BB000C94BB000C94BB00D4
:1000C0000C94BB000C94BB000C94BB000C94BB00C4
:1000D0000C94BB000C94BB000C94BB000C94BB00B4
:1000E0000C94BB000C94BB000C94BB000C94BB00A4
:1000F0000C94BB000C94BB000C94BB000C94BB0094
:100100000C94BB000C94BB000C94BB000C94BB0083
:100110000C94BB000C94BB000C94BB000C94BB0073
:100120000C94BB000C94BB000C94BB000C94BB0063
:100130000C94BB0011241FBECFEFD1E8DEBFCDBFB2
:1001400000E00CBF13E0A0E0B2E0EEEAFBE000E06C
:100150000BBF02C007900D92A03CB107D9F724E075
:10016000A0ECB3E001C01D92A73BB207E1F70E94EB
:1001700057020C94D5050C9400008091C003982F71
:100180009F7080915401807F892B809354019091BE
:10019000C0038091C103992319F0809353010895FE
:1001A0008F7190914801907E892B8093480108952A
:1001B00093E090934201909141019F719830D9F75B
:1001C00080934201909141019F718913FBCF089563
:1001D000E9E3F1E08081816080831092C203109294
:1001E000C00381E08093430488E00E94D8008FE040
:1001F0008093C1030E94BD008BEE80935601ECE416
:10020000F1E0808180688083E4E4F1E080818F7D8B
:100210008083E8E4F1E080818F7980830895809382
:10022000C20388E00E94D8008FEF80934F01809135
:10023000C203882319F086E00C94D80008951F9318
:10024000CF93DF93D82F192FC62F89E00E94D800B3
:100250008FEF80934F01C09380019D2FED2FF12FE1
:10026000A1E8B1E08E2F891B8C1718F481918D9332
:10027000F9CF83E08093430482E080934201DF91D1
:10028000CF911F91089580914304823009F451C0A9
:1002900080914F0183FF41C050917B018091B50453
:1002A000811125C040E0252F30E0842F90E02817F1
:1002B000390754F0FC01E058FE4F6081FC01ED531A
:1002C000FC4F60834F5FF1CF83EC93E090934A043F
:1002D0008093490450934B04F901ED53FC4F808106
:1002E00080934C04809147018A5580934D048091FE
:1002F0004F01886080934F0180914C018F778093EC
:100300004C0180914C01806880934C0186E00E94F2
:10031000D80081E08093B504089580914F0186FF55
:1003200008C080914F01806480934F0186E00C9457
:10033000D8000895CF92DF92EF92FF920F931F9310
:10034000CF93DF937C01EB016A01890144E650E021
:1003500061E072E0CE010E94DE02892BE9F4FE0129
:10036000EC59FF4F8081F6018083FE01EB59FF4F6E
:10037000808190E0F7019183808367E670E0CE0191
:100380000E94CA02811104C081E0F801808305C087
:10039000F801108281E001C080E0DF91CF911F91D0
:1003A0000F91FF90EF90DF90CF9008958091C8005B
:1003B00087FF03C08091CE00089580E00895CF9319
:1003C000DF93CDB7DEB7DA950FB6F894DEBF0FBE78
:1003D000CDBFAE014A5F5E4FFA0161917191AF01ED
:1003E000CE0101960E94F20280E0E1E0F0E0EC0F25
:1003F000FD1FE80FF11D9081992341F09093CE00ED
:100400009091C80095FFFCCF8F5FEFCFD3950FB6CB
:10041000F894DEBF0FBECDBFDF91CF910895CF938B
:10042000DF93EB0124E6E1E0F2E0DB0101900D92C5
:100430002A95E1F7FB01EC59FF4F408331969183F8
:10044000808366E670E0CE010E94CA02CA59DF4F7F
:10045000888386E692E09F938F930E94DF010F903E
:100460000F9081E0DF91CF9108951092CD0085E348
:100470008093CC001092C80088E18093C90086E088
:100480008093CA0008951092B5040FB6F894A89509
:1004900080916000886180936000109260000FBEC0
:1004A0000E9435020E94E80081E00C940F01CF9376
:1004B000DF93CDB7DEB7C756D1090FB6F894DEBFCC
:1004C0000FBECDBF0E94430283E7E82E82E0F82EE4
:1004D0009CE7C92E92E0D92E0E9443010E94D601CA
:1004E000182F8823C9F01F928F93FF92EF920E94DA
:1004F000DF010F900F900F900F90113669F442E0DA
:10050000BE016F5F7F4F81E090E00E940F0267E6BF
:10051000CE0101960E941F018091B5048130E1F661
:100520006091490470914A048EE494E00E94EB02C9
:1005300026EB34E040E052E06EE474E084E494E0C2
:100540000E949A01882319F18091B6041F928F931B
:10055000809100021F928F93809145048F93809128
:1005600044048F9380914D04282F082E000C330BE8
:100570003F938F9380914B041F928F93DF92CF9282
:100580000E94DF010FB6F894DEBF0FBECDBF109200
:10059000B504A2CFDC01009779F0680F791F80E0E5
:1005A000A617B70741F09D91E82FE927F0E0E05446
:1005B000FD4F8081F5CF089580E00895FB01DC01B7
:1005C00004C08D910190801921F441505040C8F72A
:1005D000881B990B0895FB01DC0101900D9200200E
:1005E000E1F708950F931F93CF93DF93CDB7DEB755
:1005F0002E970FB6F894DEBF0FBECDBF8C0186E0FC
:100600008C831A8309838FEF9FE79E838D83CE01AE
:1006100001960E941B03EF81F885E00FF11F108205
:100620002E960FB6F894DEBF0FBECDBFDF91CF91EF
:100630001F910F9108952F923F924F925F926F9268
:100640007F928F929F92AF92BF92CF92DF92EF9262
:10065000FF920F931F93CF93DF93CDB7DEB72B9706
:100660000FB6F894DEBF0FBECDBF6C017B018A01CF
:10067000FC0117821682838181FFCCC1CE010196D5
:100680003C01F6019381F70193FD859193FF8191E0
:100690007F01882309F4BAC1853239F493FD85912D
:1006A00093FF81917F01853229F4B60190E00E9489
:1006B0003B05E7CF912C212C312CFFE1F315D8F02D
:1006C0008B3279F038F4803279F08332A1F4232D23
:1006D00020611DC08D3261F0803369F4232D2160CB
:1006E00016C0832D8260382EE32DE4603E2E2AC092
:1006F000F32DF8601DC037FC2DC020ED280F2A30E7
:1007000040F08E32B9F436FC81C1232D2064322EA4
:1007100019C036FE06C08AE0989E200D1124922E44
:1007200011C0EAE02E9E200D1124222EF32DF0623E
:100730003F2E08C08C3621F4832D8068382E02C0ED
:10074000883641F4F70193FD859193FF81917F01F4
:100750008111B3CF982F9F7D9554933028F40C5F6F
:100760001F4F9FE399830DC0833631F0833771F0BB
:10077000833509F059C021C0F801808189830E5F5B
:100780001F4F88248394912C530113C02801F2E059
:100790004F0E511CF801A080B18036FE03C0692DB8
:1007A00070E002C06FEF7FEFC5010E9430054C0181
:1007B0008201F32DFF773F2E16C0280122E0420E62
:1007C000511CF801A080B18036FE03C0692D70E095
:1007D00002C06FEF7FEFC5010E9425054C01F32D8C
:1007E000F0683F2E820133FC1BC0822D90E08816FA
:1007F0009906B0F4B60180E290E00E943B052A948D
:10080000F4CFF50137FC859137FE81915F01B60188
:1008100090E00E943B0521102A9421E0821A910861
:100820008114910471F7E8C0843611F0893641F5DE
:10083000F80137FE07C060817181828193810C5F6E
:100840001F4F08C060817181072E000C880B990B27
:100850000E5F1F4FF32DFF763F2E97FF09C0909537
:100860008095709561957F4F8F4F9F4FF0683F2E19
:100870002AE030E0A3010E947705882E861845C043
:10088000853731F4232D2F7EB22E2AE030E025C0AB
:10089000932D997FB92E8F36C1F018F4883579F0F1
:1008A000B5C0803719F0883721F0B0C0E92FE0617A
:1008B000BE2EB4FE0DC0FB2DF460BF2E09C034FE69
:1008C0000AC0292F2660B22E06C028E030E005C0FD
:1008D00020E130E002C020E132E0F801B7FE07C0BD
:1008E00060817181828193810C5F1F4F06C060819E
:1008F000718180E090E00E5F1F4FA3010E94770599
:10090000882E8618FB2DFF773F2E36FE0DC0232D37
:100910002E7FA22E891458F434FE0BC032FC09C07D
:10092000832D8E7EA82E05C0B82CA32C03C0B82C16
:1009300001C0B92CA4FE0FC0FE01E80DF11D80819D
:10094000803321F49A2D997EA92E09C0A2FE06C0FB
:10095000B394B39404C08A2D867809F0B394A3FCB1
:1009600011C0A0FE06C0B21488F4280C922C9B186B
:100970000EC0B21460F4B60180E290E00E943B0524
:10098000B394F7CFB21418F42B1802C0982C212C72
:10099000A4FE10C0B60180E390E00E943B05A2FED9
:1009A00017C0A1FC03C088E790E002C088E590E092
:1009B000B6010CC08A2D867859F0A1FE02C08BE2E8
:1009C00001C080E2A7FC8DE2B60190E00E943B05E9
:1009D000891438F4B60180E390E00E943B059A94B4
:1009E000F7CF8A94F301E80DF11D8081B60190E004
:1009F0000E943B058110F5CF222009F442CEB601BA
:100A000080E290E00E943B052A94F6CFF6018681B1
:100A1000978102C08FEF9FEF2B960FB6F894DEBF41
:100A20000FBECDBFDF91CF911F910F91FF90EF903F
:100A3000DF90CF90BF90AF909F908F907F906F90FE
:100A40005F904F903F902F900895FC01059061506A
:100A500070400110D8F7809590958E0F9F1F0895D4
:100A6000FC016150704001900110D8F7809590957D
:100A70008E0F9F1F08950F931F93CF93DF93FB015A
:100A8000238121FD03C08FEF9FEF2CC022FF16C0F2
:100A900046815781248135814217530744F4A08150
:100AA000B1819D012F5F3F4F318320838C9326813D
:100AB00037812F5F3F4F3783268314C08B01EC01B2
:100AC000FB010084F185E02D1995892BE1F6D80111
:100AD00016968D919C911797019617969C938E93DD
:100AE0001697CE01DF91CF911F910F910895FA01D2
:100AF000AA27283051F1203181F1E8946F936E7F5D
:100B00006E5F7F4F8F4F9F4FAF4FB1E03ED0B4E04D
:100B10003CD0670F781F891F9A1FA11D680F791F8E
:100B20008A1F911DA11D6A0F711D811D911DA11D9F
:100B300020D009F468943F912AE0269F11243019AF
:100B4000305D3193DEF6CF010895462F4770405D4A
:100B50004193B3E00FD0C9F7F6CF462F4F70405DF9
:100B60004A3318F0495D31FD4052419302D0A9F754
:100B7000EACFB4E0A6959795879577956795BA954E
:100B8000C9F700976105710508959B01AC010A2E14
:100B900006945795479537952795BA95C9F7620FEB
:0E0BA000731F841F951FA01D0895F894FFCFAA
:100BAE000175574C6D704A39656C46706E5772659B
:100BBE00334D7742487A444155746A5753596F61A1
:100BCE00344F3553706444744E477239636E6556B4
:100BDE006F6D424135423234715A4A48413970681C
:100BEE0068636D376D4D4B4278697A5A6A744E6FF1
:100BFE00694E4C496369575279436F554E6657306B
:100C0E00633738464D004D657373616765207365B4
:100C1E006E74004563686F3A202563000A0D6E6599
:100C2E0077207472616D65212073697A653A20258B
:100C3E00642C20525353493A20256464426D0A0DA8
:100C4E0020616C657274653A2025640A0D2041633B
:100C5E006B3A2025640A0D20435243203A25640046
:100C6E0000316253C4F5A697B988DBEA7D4C1F2E7E
:100C7E004372211087B6E5D4FACB98A93E0F5C6D6E
:100C8E0086B7E4D5427320113F0E5D6CFBCA99A85E
:100C9E00C5F4A796013063527C4D1E2FB889DAEB4E
:100CAE003D0C5F6EF9C89BAA84B5E6D7407122133E
:100CBE007E4F1C2DBA8BD8E9C7F6A594033261502E
:100CCE00BB8AD9E87F4E1D2C02336051C6F7A4951E
:100CDE00F8C99AAB3C0D5E6F4170231285B4E7D60E
:100CEE007A4B1829BE8FDCEDC3F2A19007366554FE
:100CFE0039085B6AFDCC9FAE80B1E2D344752617EE
:100D0E00FCCD9EAF38095A6B4574271681B0E3D2DD
:100D1E00BF8EDDEC7B4A192806376455C2F3A091CD
:100D2E004776251483B2E1D0FECF9CAD3A0B5869BD
:100D3E0004356657C0F1A293BD8CDFEE79481B2AAD
:100D4E00C1F0A3920534675678491A2BBC8DDEEF9D
:100D5E0082B3E0D1467724153B0A5968FFCE9DAC8D
:00000001FF
