:100000000C941B010C943C010C943C010C943C019D
:100010000C943C010C943C010C943C010C943C016C
:100020000C943C010C943C010C943C010C943C015C
:100030000C943C010C943C010C943C010C943C014C
:100040000C943C010C94C6020C943C010C943C01B1
:100050000C943C010C943C010C943C010C943C012C
:100060000C943C010C943C010C943C010C943C011C
:100070000C943C010C94A5020C943C010C943C01A2
:100080000C94C9010C943C010C943C010C943C016F
:100090000C943C010C943C010C943C010C943C01EC
:1000A0000C943C010C943C010C943C010C943C01DC
:1000B0000C943C010C943C010C943C010C943C01CC
:1000C0000C943C010C943C010C943C010C943C01BC
:1000D0000C943C010C943C010C943C010C943C01AC
:1000E0000C943C010C943C010C943C010C943C019C
:1000F0000C943C010C943C010C943C010C943C018C
:100100000C943C010C943C010C943C010C943C017B
:100110000C943C010C943C010C943C010C943C016B
:100120000C943C010C943C010C943C010C943C015B
:100130000C943C016E616E00696E660000407A109E
:10014000F35A00A0724E18090010A5D4E80000E888
:100150007648170000E40B54020000CA9A3B0000E6
:1001600000E1F505000080969800000040420F0075
:100170000000A08601000000102700000000E80336
:10018000000000006400000000000A000000000001
:100190000100000000002C76D888DC674F0823DFC0
:1001A000C1DFAE59E1B1B796E5E3E453C63AE65193
:1001B000997696E8E6C28426EB898C9B62ED407CBA
:1001C0006FFCEFBC9C9F40F2BAA56FA5F490055A56
:1001D0002AF75C936B6CF9676DC11BFCE0E40D477B
:1001E000FEF520E6B500D0ED902E0300943577059E
:1001F0000080841E080000204E0A000000C80C3356
:100200003333330F986E12831141EF8D2114893BE4
:10021000E65516CFFEE6DB18D1844B381BF77C1D64
:10022000901DA4BBE424203284725E228100C9F1B7
:1002300024ECA1E53D2711241FBECFEFD1E8DEBF9E
:10024000CDBF00E00CBF16E0A0E0B2E0ECE3FEE1C1
:1002500000E00BBF02C007900D92AE38B107D9F78E
:1002600028E0AEE8B6E001C01D92A432B207E1F783
:100270000E94CD040C941C0F0C94000093E090930A
:100280004201909141019F719830D9F780934201CA
:10029000909141019F718913FBCF08951F93CF93D4
:1002A000DF93D82F192FC62F89E00E943E018FEFD0
:1002B00080934F01C09380019D2FED2FF12FA1E876
:1002C000B1E08E2F891B8C1718F481918D93F9CF93
:1002D00083E080930E0782E080934201DF91CF910B
:1002E0001F91089580910E07823009F451C08091CA
:1002F0004F0183FF41C050917B018091BC07811168
:1003000025C040E0252F30E0842F90E028173907E2
:1003100054F0FC01E058FE4F6081FC01E257F94FB8
:1003200060834F5FF1CF8EE896E09093360780931D
:10033000350750933707F901E257F94F80818093D1
:100340003807809147018A558093390780914F0182
:10035000886080934F0180914C018F7780934C018E
:1003600080914C01806880934C0186E00E943E01A0
:1003700081E08093BC07089580914F0186FF08C0FB
:1003800080914F01806480934F0186E00C943E0180
:1003900008951F920F920FB60F9211242F933F933F
:1003A0008F939F9380913307909134079C012F5F27
:1003B0003F4F30933407209333072091140230913C
:1003C0001502821793073CF01092340710923307FE
:1003D00081E08093270780913107909132079C013B
:1003E0002F5F3F4F30933207209331072091100247
:1003F00030911102281739073CF4109232071092FD
:10040000310781E080931C0780913107909132077A
:100410009C012F5F3F4F309332072093310720918B
:100420001002309111022817390774F480911007D7
:10043000882351F010923207109231071092100762
:1004400081E0809323070AC080911007811106C0C4
:1004500010923207109231071092230780912F07D4
:10046000909130079C012F5F3F4F309330072093CE
:100470002F0720911002309111022817390774F4C8
:1004800080910F07882351F01092300710922F07A8
:1004900010920F0781E0809322070AC08091240701
:1004A000811106C01092300710922F071092220778
:1004B000809121078823D1F080912D0790912E07FC
:1004C0009C012F5F3F4F30932E0720932D072091E3
:1004D0000E0230910F022817390764F410922E078C
:1004E00010922D0781E080931E0704C010922E0702
:1004F00010922D07809120078823D1F080912B073F
:1005000090912C079C012F5F3F4F30932C07209335
:100510002B0720910C0230910D022817390764F443
:1005200010922C0710922B0781E080931D0704C0C6
:1005300010922C0710922B079F918F913F912F9132
:100540000F900FBE0F901F9018951F920F920FB62D
:100550000F9211240BB60F928F93EF93FF93EAE75C
:10056000F0E080818F7E808381E080932607FF9179
:10057000EF918F910F900BBE0F900FBE0F901F90B9
:1005800018959BB181E089278BB908951F920F922E
:100590000FB60F9211240BB60F922F933F934F93E8
:1005A0005F936F937F938F939F93AF93BF93EF93DB
:1005B000FF938091290790912A079C012F5F3F4F5D
:1005C00030932A07209329072091120230911302B9
:1005D0008217930734F010922A07109229070E947D
:1005E000C102FF91EF91BF91AF919F918F917F9148
:1005F0006F915F914F913F912F910F900BBE0F9094
:100600000FBE0F901F901895009719F480E197E2A4
:100610000AC08130910519F488E893E104C002977B
:1006200031F480ED97E090931302809312020895C5
:10063000CF92DF92EF92FF926B017C0120E030E0DD
:1006400040EE50E40E94C30B181674F020E030E036
:1006500040E850E4C701B6010E94EC0C87FD04C0DD
:100660002E9829982D9A1CC020E030E040EE50E4EE
:10067000C701B6010E94EC0C18161CF42E98299A9A
:100680000EC020E030E040E850E4C701B6010E940F
:10069000C30B87FF02C02E9A01C02E9829982D986F
:1006A000FF90EF90DF90CF900895CF92DF92EF927E
:1006B000FF922AE939E941E251E40E94F10C2AE96A
:1006C00039E949ED50E40E94C80B20E030E040E6F3
:1006D00050E40E94F10C6B017C0120E030E040E628
:1006E00051E40E94EC0C18164CF020E030E0A90117
:1006F000C701B6010E94C30B87FF07C0C12CDD24D0
:10070000DA948FE7E82E87E4F82EC701B601FF9050
:10071000EF90DF90CF900895AFE6B0E01C92E1E754
:10072000F0E010821092800089E0809381001092A6
:1007300085001092840084E690E090938900809375
:100740008800109290008DE08093910010929500A7
:100750001092940085E89EE1909399008093980010
:1007600082E08C938083089510BA80E480937C00AB
:100770008FE880937A00089514B81AB8269A259ABB
:10078000219A509A15B81BB808958091780060910D
:10079000790070E0762F662766277370682B072E26
:1007A000000C880B990B0E943C0C20E030E040E8E4
:1007B0005AE30E94F10C23E333E343E550E40E9443
:1007C000F10C2DEC3CEC4CEC5DE30E94570B0895D2
:1007D000CF93DF93CDB7DEB7DA950FB6F894DEBFCF
:1007E0000FBECDBFAE014A5F5E4FFA0161917191BC
:1007F000AF01CE0101960E94950E80E0E1E0F0E0AD
:10080000EC0FFD1FE80FF11D9081992341F09093AB
:10081000CE009091C80095FFFCCF8F5FEFCFD395AE
:100820000FB6F894DEBF0FBECDBFDF91CF91089514
:100830001092CD0085E38093CC001092C80088E12F
:100840008093C90086E08093CA000895F8941092BE
:10085000BC070FB6F894A8958091600088618093DA
:100860006000109260000FBE0E9418040E94BC033A
:100870000E94B4030E948C0378940895EAE7F0E0A4
:1008800080818064808308950F931F93CF93DF93BB
:1008900000D01F92CDB7DEB79A8389838B015C832A
:1008A0004B8384E6E6E1F2E0DB0101900D928A954C
:1008B000E1F7FB01EC59FF4F8B81808331968981F1
:1008C000808366E670E0C8010E949C07F801EA593F
:1008D000FF4F80838BE792E09F938F930E94E80302
:1008E00081E00F900F900F900F900F900F90DF917D
:1008F000CF911F910F910895CF92DF92EF92FF92C7
:100900000F931F93CF93DF937C01EB016A01890161
:1009100044E650E066E172E0CE010E94410E892B70
:10092000F9F4FE01EC59FF4F808190E0F6019183CC
:100930008083FE01EB59FF4F808190E0F7019183A6
:10094000808367E670E0CE010E949C07811104C09D
:1009500081E0F801808305C0F801108281E001C0C8
:1009600080E0DF91CF911F910F91FF90EF90DF908A
:10097000CF900895FB019A01609135077091360779
:10098000AF010C947C04AB016DEB77E00E94440452
:1009900061E78DEB97E00C944E010E94260401E084
:1009A00010E08FE7282E83E0382EC2E0D0E096E9F1
:1009B000892E93E0992E2AEDA22E23E0B22E0E94DA
:1009C000720180912807882321F0109228070E9445
:1009D000C10280911807909119070E940403609149
:1009E00002027091030280910402909105020E941C
:1009F0001803809127078823A1F0109227070E94EF
:100A00003E04809119078F93809118078F9388E88F
:100A100092E09F938F930E94E8030F900F900F90A6
:100A20000F9080912607882309F4B5C010922607FD
:100A30000E94C503F62EE72ED82EC92E862F9E2D96
:100A4000AD2DBC2D8093140790931507A093160726
:100A5000B0931707A7019601652F742F832F922F4C
:100A60000E94550360930202709303028093040274
:100A700090930502CF92DF92EF92FF9284EA92E088
:100A80009F938F930E94E803809105028F9380913A
:100A900004028F93809103028F93809102028F93BF
:100AA0008AEB92E09F938F930E94E803C09002022A
:100AB000D0900302E0900402F09005028DB79EB73B
:100AC0000C960FB6F8949EBF0FBE8DBF20E03FEF8F
:100AD0004FE757E4C701B6010E94C30B811109C05B
:100AE0008DEC92E09F938F930E94E8030F900F90FC
:100AF00044C06091010270E080E090E00E943C0CF4
:100B00002B013C019B01AC01C701B6010E94C30B44
:100B100087FF16C080911A0790911B07892B59F403
:100B200081E08093250784EF92E09F938F930E944A
:100B3000E8030F900F9010931B0700931A071DC036
:100B4000A3019201C701B6010E94EC0C87FD15C0FC
:100B500080911A0790911B07019759F481E08093C7
:100B6000250786E293E09F938F930E94E8030F90FE
:100B70000F9010921B0710921A07809125071F9261
:100B80008F9387E593E09F938F930E94E8030F90E4
:100B90000F900F900F908091080290910902029798
:100BA000029798F58091100781112FC080910F074F
:100BB00081112BC080911207811127C060E070E085
:100BC00080911A0790911B070E94C304809110071F
:100BD0001F928F9388E693E09F938F930E94E80380
:100BE00080910F071F928F933F922F920E94E803EC
:100BF00081E080931007109225078DB79EB7089665
:100C00000FB6F8949EBF0FBE8DBF80912507882335
:100C1000C9F080911007811115C080910F078111D3
:100C200011C08091120781110DC01092250760E05C
:100C300070E080911A0790911B070E94C30481E025
:100C40008093100780912307882319F110922307BE
:100C500010921007D0930902C09308029F928F92BE
:100C60000E94E8038091130791E0980F9093130777
:100C70000F900F9090910002891758F081E08093B7
:100C8000120710921307BF92AF920E94E8030F90D1
:100C90000F9080912207882379F0109222071092FA
:100CA0000F0780911007811107C0809125078111DE
:100CB00003C081E0809325078091BC07813009F053
:100CC000E2C081E294E09F938F930E94E80341E1A8
:100CD00057E066E072E08AE092E00E94BA040F906A
:100CE0000F90882309F4C3C08091110781110AC0B5
:100CF00063E070E080911A0790911B070E94C30483
:100D00001092BC07809111078823A1F08091060200
:100D100090910702039771F480911007882351F096
:100D200060E070E080911A0790911B070E94C30455
:100D30001092BC07809111078823A1F080910602D0
:100D400090910702039771F480910F07882351F067
:100D500061E070E080911A0790911B070E94C30424
:100D60001092BC0780911107882389F180910602B7
:100D700090910702019759F580911007882339F166
:100D80001092100780910A0290910B029093090231
:100D9000809308028130910519F484E494E007C03F
:100DA000892B19F483E794E002C081EA94E09F93D1
:100DB0008F930E94E8030F900F9062E070E08091A3
:100DC0001A0790911B070E94C3041092BC078091E0
:100DD00011078823B1F080910602909107020297D3
:100DE00081F480910F07882361F010920F0787ED3F
:100DF00094E09F938F930E94E8031092BC070F909A
:100E00000F9080911107882391F1809106029091B3
:100E10000702892B61F561E070E080911A079091DB
:100E20001B070E94C30480910A0290910B029093C9
:100E30000902809308028130910519F48AEF94E049
:100E400007C0892B19F489E295E002C087E595E097
:100E50009F938F930E94E8030F900F9081E08093FF
:100E60000F071092BC07109212071092130741E16E
:100E700057E066E072E08AE092E00E94BA048111D5
:100E800002C01092BC072091120780911A0790911E
:100E90001B07222341F08130910539F5D0931907C2
:100EA000C093180728C08130910579F42091080279
:100EB00030910902A901425051094230510510F503
:100EC00090931907809318071DC0892BA1F4809176
:100ED0000802909109029C0122503109223031050B
:100EE00020F41092190710921807892B21F4109200
:100EF0001907109218071092210710921F071092DD
:100F00001E075DCD2130310521F4D0931907C09320
:100F10001807232B81F781E08093210780911E071A
:100F2000882329F0D0931907C093180748CD109350
:100F300019070093180743CDDC01009779F0680F7B
:100F4000791F80E0A617B70741F09D91E82FE927A8
:100F5000F0E0E357FA4F8081F5CF089580E00895DF
:100F60002F923F924F925F926F927F928F929F92B9
:100F7000AF92BF92CF92DF92EF92FF920F931F93A7
:100F8000CF93DF93CDB7DEB760970FB6F894DEBF8F
:100F90000FBECDBF7C011B016A01FC0117821682C6
:100FA000838181FF44C39E012F5F3F4F3901F701C9
:100FB0009381F10193FD859193FF81911F01882316
:100FC00009F431C3853239F493FD859193FF819102
:100FD0001F01853239F4B70190E00E94590E560185
:100FE0006501E5CF10E0512C912CFFE1F915D8F007
:100FF0008B3279F038F4803279F08332A1F4F92D14
:10100000F0612EC08D3261F0803369F4292D2160AA
:101010002DC0392D3260932E892D8460982E2AC0E0
:10102000E92DE86015C097FC2DC020ED280F2A306F
:1010300088F496FE06C03AE0139F200D1124122F6B
:1010400019C08AE0589E200D1124522EE92DE0622D
:101050009E2E10C08E3231F496FCE5C2F92DF0645C
:101060009F2E08C08C3621F4292D2068922E02C0B4
:10107000883641F4F10193FD859193FF81911F0121
:101080008111B3CF9BEB980F933020F4992D906191
:10109000805E07C09BE9980F933008F066C1992DD8
:1010A0009F7E96FF16E09F73992E853619F4906403
:1010B000992E08C0863621F4392F3068932E02C04D
:1010C0001111115097FE07C01C3350F4442443946F
:1010D000410E27E00BC0183038F027E017E005C0BC
:1010E00027E09CE3492E02C0212F412C560184E0C9
:1010F000A80EB11CF6016081718182819381042D5B
:10110000A3010E945E0D6C01F981FC87F0FF02C013
:10111000F3FF06C091FC06C092FE06C000E205C0C7
:101120000DE203C00BE201C000E08C858C7019F069
:1011300001115AC29BC297FE10C04C0CFC85F4FFF3
:1011400004C08A81813309F44A94141474F528E0A8
:10115000241578F588E0482E2CC096FC2AC0812FF3
:1011600090E08C159D059CF03CEFC3163FEFD30635
:1011700074F0892D8068982E0AC0E2E0F0E0EC0F50
:10118000FD1FE10FF11D8081803319F41150111101
:10119000F4CF97FE0EC044244394410E812F90E07B
:1011A000C816D9062CF41C1904C04424439401C069
:1011B00010E097FE06C01C141D0434F4C60101960D
:1011C00005C085E090E002C081E090E00111019649
:1011D000112331F0212F30E02F5F3F4F820F931FFB
:1011E000252D30E08217930714F4581A01C0512CB2
:1011F000892D897049F4552039F0B70180E290E0DB
:101200000E94590E5A94F7CF002329F0B701802F7E
:1012100090E00E94590E93FC09C0552039F0B701A7
:1012200080E390E00E94590E5A94F7CF97FE4CC08D
:101230004601D7FE02C0812C912CC601881999095C
:10124000F301E80FF91FFE87ED8796012419310994
:10125000388B2F87012F10E01195019511093FEF71
:101260008316930629F4B7018EE290E00E94590E8E
:10127000C814D9044CF08F8598898815990524F4F1
:10128000ED85FE85818101C080E3F1E08F1A910830
:101290002D853E852F5F3F4F3E872D878016910617
:1012A0002CF0B70190E00E94590ED9CFC814D90490
:1012B00041F49A81963320F4953319F43C8534FF38
:1012C00081E3B70190E04EC08A81813319F09C859B
:1012D0009F7E9C87B70190E00E94590E111105C0B6
:1012E00094FC18C085E690E017C0B7018EE290E04C
:1012F0000E94590E1E5F82E001E0080FF301E80F23
:10130000F11D8081B70190E00E94590E802F0113DA
:10131000F3CFE6CF85E490E0B7010E94590ED7FCE9
:1013200006C0C114D10441F4EC85E4FF05C0D1949A
:10133000C194D1088DE201C08BE2B70190E00E9418
:10134000590E80E32AE0C216D1042CF08F5FFAE038
:10135000CF1AD108F7CFB70190E00E94590EB7011C
:10136000C601C0960E94590E54C1833631F08337AE
:1013700079F0833509F056C020C0560132E0A30E43
:10138000B11CF6018081898301E010E0630112C085
:101390005601F2E0AF0EB11CF601C080D18096FE7E
:1013A00003C0612F70E002C06FEF7FEFC6010E94A3
:1013B0004E0E8C01F92DFF7714C0560122E0A20ECB
:1013C000B11CF601C080D18096FE03C0612F70E091
:1013D00002C06FEF7FEFC6010E94360E8C01F92D1F
:1013E000F0689F2EF3FD1AC0852D90E008171907AD
:1013F000A8F4B70180E290E00E94590E5A94F4CF0D
:10140000F60197FC859197FE81916F01B70190E0FD
:101410000E94590E51105A940150110901151105DD
:1014200079F7F7C0843611F0893661F5560197FED9
:1014300009C024E0A20EB11CF60160817181828195
:1014400093810AC0F2E0AF0EB11CF6016081718198
:10145000072E000C880B990BF92DFF769F2E97FF16
:1014600009C090958095709561957F4F8F4F9F4FE4
:10147000F0689F2E2AE030E0A3010E94BE0EC82E25
:10148000C6183FC0092D853721F40F7E2AE030E0D1
:101490001DC0097F8F3691F018F4883559F0C3C00C
:1014A000803719F0883711F0BEC0006104FF09C011
:1014B000046007C094FE08C0066006C028E030E063
:1014C00005C020E130E002C020E132E0560107FF14
:1014D00009C084E0A80EB11CF6016081718182818F
:1014E000938108C0F2E0AF0EB11CF60160817181FA
:1014F00080E090E0A3010E94BE0EC82EC6180F77B0
:10150000902E96FE0BC0092D0E7FC11650F494FE4E
:101510000AC092FC08C0092D0E7E05C0DC2C092DE6
:1015200003C0DC2C01C0D12E04FF0DC0FE01EC0D68
:10153000F11D8081803311F4097E09C002FF06C0CD
:10154000D394D39404C0802F867809F0D39403FDFC
:1015500011C000FF06C01C2DD51480F4150D1D19F7
:101560000DC0D51458F4B70180E290E00E94590EE6
:10157000D394F7CFD51410F45D1801C0512C04FF9B
:1015800010C0B70180E390E00E94590E02FF17C01F
:1015900001FD03C088E790E002C088E590E0B70154
:1015A0000CC0802F867859F001FF02C08BE201C089
:1015B00080E207FD8DE2B70190E00E94590EC1164E
:1015C00038F4B70180E390E00E94590E1150F7CF34
:1015D000CA94F301EC0DF11D8081B70190E00E94E7
:1015E000590EC110F5CF15C0F4E0F51560F584E093
:1015F000581A93FE1FC0011127C02C8523FF2AC053
:1016000004E311E0392D3071932EF801849181119A
:1016100024C0552009F4E4CCB70180E290E00E9498
:10162000590E5A94F6CFF7018681978126C08FEF25
:101630009FEF23C0B70180E290E00E94590E5A94B8
:101640005110F8CFD8CF512CB701802F90E00E94D5
:10165000590ED3CF08E311E0D5CF91108052B701D6
:1016600090E00E94590E0F5F1F4FCFCF23E025154A
:1016700010F483E0BDCF512CC0CF60960FB6F89424
:10168000DEBF0FBECDBFDF91CF911F910F91FF90B5
:10169000EF90DF90CF90BF90AF909F908F907F9012
:1016A0006F905F904F903F902F9008955058BB27B8
:1016B000AA270E946E0B0C94B20C0E94A40C38F066
:1016C0000E94AB0C20F039F49F3F19F426F40C94DF
:1016D000A10C0EF4E095E7FB0C949B0CE92F0E9403
:1016E000C30C58F3BA17620773078407950720F0F5
:1016F00079F4A6F50C94E50C0EF4E0950B2EBA2FB8
:10170000A02D0B01B90190010C01CA01A001112407
:10171000FF27591B99F0593F50F4503E68F11A16B3
:10172000F040A22F232F342F4427585FF3CF469544
:1017300037952795A795F0405395C9F77EF41F1666
:10174000BA0B620B730B840BBAF09150A1F0FF0F30
:10175000BB1F661F771F881FC2F70EC0BA0F621F1C
:10176000731F841F48F4879577956795B795F7950C
:101770009E3F08F0B0CF9395880F08F09927EE0FA1
:101780009795879508950E94770C08F481E0089555
:101790000E94DC0B0C94B20C0E94AB0C58F00E941F
:1017A000A40C40F029F45F3F29F00C949B0C5111DC
:1017B0000C94E60C0C94A10C0E94C30C68F39923C2
:1017C000B1F3552391F3951B550BBB27AA2762173D
:1017D0007307840738F09F5F5F4F220F331F441F4A
:1017E000AA1FA9F335D00E2E3AF0E0E832D091507E
:1017F0005040E695001CCAF72BD0FE2F29D0660F6B
:10180000771F881FBB1F261737074807AB07B0E8AD
:1018100009F0BB0B802DBF01FF2793585F4F3AF0B3
:101820009E3F510578F00C949B0C0C94E60C5F3FA6
:10183000E4F3983ED4F3869577956795B795F79539
:101840009F5FC9F7880F911D9695879597F9089521
:10185000E1E0660F771F881FBB1F621773078407BD
:10186000BA0720F0621B730B840BBA0BEE1F88F7CC
:10187000E0950895E89409C097FB3EF49095809513
:10188000709561957F4F8F4F9F4F9923A9F0F92F46
:1018900096E9BB279395F695879577956795B795C4
:1018A000F111F8CFFAF4BB0F11F460FF1BC06F5FAA
:1018B0007F4F8F4F9F4F16C0882311F096E911C0BC
:1018C000772321F09EE8872F762F05C0662371F0DD
:1018D00096E8862F70E060E02AF09A95660F771FF1
:1018E000881FDAF7880F9695879597F90895990FCD
:1018F0000008550FAA0BE0E8FEEF16161706E807DA
:10190000F907C0F012161306E407F50798F0621BFA
:10191000730B840B950B39F40A2661F0232B242BCF
:10192000252B21F408950A2609F4A140A6958FEFEE
:10193000811D811D089597F99F6780E870E060E040
:1019400008959FEF80EC089500240A941616170658
:1019500018060906089500240A94121613061406A0
:1019600005060895092E0394000C11F4882352F003
:10197000BB0F40F4BF2B11F460FF04C06F5F7F4FBB
:101980008F4F9F4F089557FD9058440F551F59F0A2
:101990005F3F71F04795880F97FB991F61F09F3F5C
:1019A00079F087950895121613061406551FF2CF85
:1019B0004695F1DF08C0161617061806991FF1CFD5
:1019C00086957105610508940895E894BB276627FC
:1019D0007727CB0197F908950E94770C08F48FEFD1
:1019E00008950E94040D0C94B20C0E94A40C38F0CF
:1019F0000E94AB0C20F0952311F00C949B0C0C94DE
:101A0000A10C11240C94E60C0E94C30C70F3959F5A
:101A1000C1F3950F50E0551F629FF001729FBB27E5
:101A2000F00DB11D639FAA27F00DB11DAA1F649F81
:101A30006627B00DA11D661F829F2227B00DA11D34
:101A4000621F739FB00DA11D621F839FA00D611DBA
:101A5000221F749F3327A00D611D231F849F600DDB
:101A6000211D822F762F6A2F11249F5750409AF004
:101A7000F1F088234AF0EE0FFF1FBB1F661F771F90
:101A8000881F91505040A9F79E3F510580F00C945B
:101A90009B0C0C94E60C5F3FE4F3983ED4F38695E0
:101AA00077956795B795F795E7959F5FC1F7FE2BFB
:101AB000880F911D9695879597F90895283008F01D
:101AC00027E03327DA01990F311D87FD91600096D9
:101AD0006105710539F432602E5F3D9330E32A953C
:101AE000E1F708959F3F30F080387105610509F0F6
:101AF0003C5F3C5F3D93913008F08068911DDF931F
:101B0000CF931F930F93FF92EF92192F987F969583
:101B1000E92F96959695E90FFF27EA56FE4F9927EC
:101B20003327EE24FF24A701E701059008940794CA
:101B300028F4360FE71EF81E491F511D660F771F48
:101B4000881F991F0694A1F70590079428F4E70EC3
:101B5000F81E491F561FC11D770F881F991F661F4A
:101B60000694A1F70590079428F4F80E491F561F14
:101B7000C71FD11D880F991F661F771F0694A1F7F5
:101B80000590079420F4490F561FC71FD81F990FBF
:101B9000661F771F881F0694A9F784911095177008
:101BA00041F0D695C79557954795F794E7941A95C0
:101BB000C1F7ECE3F1E068941590159135916591CA
:101BC000959105907FE27395E118F10A430B560B4E
:101BD000C90BD009C0F7E10CF11E431F561FC91FE6
:101BE000D01D7EF4703311F48A95E6CFE89401504D
:101BF00030F0080F0AF40027021708F4202F23956D
:101C0000022F7A3328F079E37D932A95E9F710C003
:101C10007D932A9589F6069497956795379517953C
:101C20001794E118F10A430B560BC90BD00998F031
:101C300023957E9173957A3308F070E37C9320139B
:101C4000B8F77E9170617D9330F0839571E37D9359
:101C500070E32A95E1F71124EF90FF900F911F9107
:101C6000CF91DF91992787FD90950895FC0105900C
:101C7000615070400110D8F7809590958E0F9F1F8E
:101C80000895FB01DC0104C08D910190801921F4BD
:101C900041505040C8F7881B990B0895FC016150D2
:101CA000704001900110D8F7809590958E0F9F1F7E
:101CB00008950F931F93CF93DF93FB01238121FDA1
:101CC00003C08FEF9FEF2CC022FF16C046815781C3
:101CD000248135814217530744F4A081B1819D01CD
:101CE0002F5F3F4F318320838C93268137812F5F75
:101CF0003F4F3783268314C08B01EC01FB01008426
:101D0000F185E02D1995892BE1F6D80116968D9174
:101D10009C911797019617969C938E931697CE01D8
:101D2000DF91CF911F910F9108950F931F93CF9340
:101D3000DF93CDB7DEB72E970FB6F894DEBF0FBE98
:101D4000CDBF8C0186E08C831A8309838FEF9FE7D8
:101D50009E838D83CE0101960E94B007EF81F885A6
:101D6000E00FF11F10822E960FB6F894DEBF0FBE63
:101D7000CDBFDF91CF911F910F910895FA01AA274E
:101D8000283051F1203181F1E8946F936E7F6E5FBE
:101D90007F4F8F4F9F4FAF4FB1E03ED0B4E03CD06C
:101DA000670F781F891F9A1FA11D680F791F8A1F4F
:101DB000911DA11D6A0F711D811D911DA11D20D0B6
:101DC00009F468943F912AE0269F11243019305D70
:101DD0003193DEF6CF010895462F4770405D419361
:101DE000B3E00FD0C9F7F6CF462F4F70405D4A33AE
:101DF00018F0495D31FD4052419302D0A9F7EACF76
:101E0000B4E0A6959795879577956795BA95C9F7A4
:101E100000976105710508959B01AC010A2E069497
:101E20005795479537952795BA95C9F7620F731F50
:0C1E3000841F951FA01D0895F894FFCF9B
:101E3C0005040000E0400300020002000A000A0052
:101E4C0005008813020075574C6D704A39656C4655
:101E5C00706E577265334D7742487A444155746AB7
:101E6C005753596F61344F3553706444744E4772F5
:101E7C0039636E65566F6D424135423234715A4A40
:101E8C00484139706868636D376D4D4B4278697A9B
:101E9C005A6A744E6F694E4C496369575279436F55
:101EAC00554E665730633738464D004D6573736138
:101EBC0067652073656E74000A0D4E6976656175F1
:101ECC0020616C6572746520676C6F62616C3A2579
:101EDC00640A0D000A0D54656E73696F6E204144DF
:101EEC00433A20256620560A0D000A0D56616C6592
:101EFC0075722070483A202566200A0D000A0D41A3
:101F0C005454454E54494F4E3A2056616C65757287
:101F1C00206475207048206E6F6E2076616C696449
:101F2C00650A0D000A0D4C65206E69766561752099
:101F3C0064616C6572746520736F6E64652031200A
:101F4C0070617373652064652042415320612048A1
:101F5C004155540A0D000A4C65206E697665617511
:101F6C002064616C6572746520736F6E64652031DA
:101F7C00207061737365206465204841555420615D
:101F8C00204241530A0D000A0D4C666C6167706F5C
:101F9C006C6C2025640A0D000A0D697377616974F5
:101FAC00696E6741636B31203D2025640A0D000A80
:101FBC000D697377616974696E6741636B32203D9B
:101FCC002025640A0D000A0D4C6120736F6E646548
:101FDC002031206E612070617320726563752064FE
:101FEC00652061636B20646520736F6E64652032BD
:101FFC002064616E73206C652064656C616920706F
:10200C00726573637269740A0D000A0D54726F70F5
:10201C00206465737361697320646520636F6D6DF3
:10202C003A206F6E2072656A65747465206C6574F5
:10203C006174206465206C6120736F6E646520325E
:10204C0020706F7572206C696E7374616E740A0DFA
:10205C00000A0D526563657074696F6E2064756E4D
:10206C00206D65737361676520776972656C657344
:10207C00730A0D000A0D41434B313A52656365708A
:10208C0074696F6E206E697665617520616C65721E
:10209C00746520736F6E646520323A204841555444
:1020AC000A0D000A0D41434B313A52656365707459
:1020BC00696F6E206E697665617520616C657274EE
:1020CC006520736F6E646520323A204241530A0DCD
:1020DC00000A0D41434B313A526563657074696F68
:1020EC006E206E697665617520616C657274652011
:1020FC00736F6E646520323A20494E444554455204
:10210C004D494E450A0D000A0D41434B3220726574
:10211C0063696576656420656E64207472616E73A4
:10212C006D697373696F6E0A0D000A0D504F4C4C3C
:10213C003A526563657074696F6E206E697665617D
:10214C007520616C6572746520736F6E64652032E6
:10215C003A20484155540A0D000A0D504F4C4C3A48
:10216C00526563657074696F6E206E697665617512
:10217C0020616C6572746520736F6E646520323AF1
:10218C00204241530A0D000A0D504F4C4C3A5265F7
:10219C0063657074696F6E206E6976656175206118
:1021AC006C6572746520736F6E646520323A2049D9
:1021BC004E44455445524D494E450A0D000031627E
:1021CC0053C4F5A697B988DBEA7D4C1F2E437221C8
:1021DC001087B6E5D4FACB98A93E0F5C6D86B7E4B0
:1021EC00D5427320113F0E5D6CFBCA99A8C5F4A7AC
:1021FC0096013063527C4D1E2FB889DAEB3D0C5F93
:10220C006EF9C89BAA84B5E6D7407122137E4F1C89
:10221C002DBA8BD8E9C7F6A59403326150BB8AD985
:10222C00E87F4E1D2C02336051C6F7A495F8C99A6D
:10223C00AB3C0D5E6F4170231285B4E7D67A4B1818
:10224C0029BE8FDCEDC3F2A1900736655439085BCB
:10225C006AFDCC9FAE80B1E2D344752617FCCD9EAF
:10226C00AF38095A6B4574271681B0E3D2BF8EDDA7
:10227C00EC7B4A192806376455C2F3A091477625A2
:10228C001483B2E1D0FECF9CAD3A0B58690435668D
:10229C0057C0F1A293BD8CDFEE79481B2AC1F0A385
:1022AC00920534675678491A2BBC8DDEEF82B3E069
:0E22BC00D1467724153B0A5968FFCE9DAC0031
:00000001FF
