:100000000C949A000C94BB000C94BB000C94BB00A5
:100010000C94BB000C94BB000C94BB000C94BB0074
:100020000C94BB000C94BB000C94BB000C94BB0064
:100030000C94BB000C94BB000C94BB000C94BB0054
:100040000C94BB000C94BB000C94BB000C94BB0044
:100050000C94BB000C94BB000C94BB000C94BB0034
:100060000C94BB000C94BB000C94BB000C94BB0024
:100070000C94BB000C94BB000C94BB000C94BB0014
:100080000C94BB000C94BB000C94BB000C94BB0004
:100090000C94BB000C94BB000C94BB000C94BB00F4
:1000A0000C94BB000C94BB000C94BB000C94BB00E4
:1000B0000C94BB000C94BB000C94BB000C94BB00D4
:1000C0000C94BB000C94BB000C94BB000C94BB00C4
:1000D0000C94BB000C94BB000C94BB000C94BB00B4
:1000E0000C94BB000C94BB000C94BB000C94BB00A4
:1000F0000C94BB000C94BB000C94BB000C94BB0094
:100100000C94BB000C94BB000C94BB000C94BB0083
:100110000C94BB000C94BB000C94BB000C94BB0073
:100120000C94BB000C94BB000C94BB000C94BB0063
:100130000C94BB0011241FBECFEFD1E8DEBFCDBFB2
:1001400000E00CBF12E0A0E0B2E0E8E6FAE000E078
:100150000BBF02C007900D92A43BB107D9F723E073
:10016000A4EBB2E001C01D92AE33B207E1F70E94EA
:10017000FD010C9432050C9400008091B402982F7C
:100180009F7080915401807F892B809354019091BE
:10019000B4028091B502992319F080935301089518
:1001A0008F7190914801907E892B8093480108952A
:1001B00093E090934201909141019F719830D9F75B
:1001C00080934201909141019F718913FBCF089563
:1001D000E9E3F1E08081816080831092B6021092A1
:1001E000B40281E08093370388E00E94D8008FE05A
:1001F0008093B5020E94BD008BEE80935601ECE423
:10020000F1E0808180688083E4E4F1E080818F7D8B
:100210008083E8E4F1E080818F7980830895809382
:10022000B60288E00E94D8008FEF80934F01809142
:10023000B602882319F086E00C94D80008951F9325
:10024000CF93DF931F921F92CDB7DEB7182F89E0AF
:1002500069839A830E94D8008FEF80934F01698150
:1002600060938001212FE12F9A81F92FA1E8B1E05D
:100270008E2F821B861718F481918D93F9CF83E01E
:100280008093370382E0809342010F900F90DF91BB
:10029000CF911F91089580913703823009F451C0A6
:1002A00080914F0183FF41C050917B0180913D03BC
:1002B000811125C040E0252F30E0842F90E02817E1
:1002C000390754F0FC01E058FE4F6081FC01E9540D
:1002D000FD4F60834F5FF1CF87EB92E0909339033E
:1002E0008093380350933A03F901E954FD4F80811C
:1002F00080933B03809147018A5580933C03809112
:100300004F01886080934F0180914C018F778093DB
:100310004C0180914C01806880934C0186E00E94E2
:10032000D80081E080933D03089580914F0186FFBE
:1003300008C080914F01806480934F0186E00C9447
:10034000D80008958091C80087FF03C08091CE0037
:10035000089580E00895CF93DF93CDB7DEB7DA95A7
:100360000FB6F894DEBF0FBECDBFAE014A5F5E4F41
:10037000FA0161917191AF01CE0101960E94610273
:1003800080E0E1E0F0E0EC0FFD1FE80FF11D90814F
:10039000992341F09093CE009091C80095FFFCCF37
:1003A0008F5FEFCFD3950FB6F894DEBF0FBECDBFF2
:1003B000DF91CF9108951092CD0085E38093CC001A
:1003C0001092C80088E18093C90086E08093CA003B
:1003D000089510923D030FB6F894A895809160009F
:1003E000886180936000109260000FBE0E94DB0164
:1003F0000E94E80081E00C940F01CF93DF93CDB70A
:10040000DEB7C158D1090FB6F894DEBF0FBECDBF1D
:100410000E94E9018BE0D82E95E7C92E7E018CE081
:10042000E80EF11C00E812E00E944B010E94A201BC
:10043000882329F11F928F93CF57DF4F8883C158AC
:10044000D0400E94AB010F900F90CF57DF4F8881B3
:10045000C158D040813699F4E0E0F2E0DE01119617
:100460008D2D01900D928A95E1F7F7018C2D119257
:100470008A95E9F76AE0CE0101960E941F018091FA
:100480003D03813089F6809139038F938091380341
:100490008F9380913C03282F082E000C330B3F9341
:1004A0008F9380913A031F928F931F930F930E9413
:1004B000AB0110923D030FB6F894DEBF0FBECDBF67
:1004C000B3CF0F931F93CF93DF93CDB7DEB72E97A4
:1004D0000FB6F894DEBF0FBECDBF8C0186E08C83D3
:1004E0001A8309838FEF9FE79E838D83CE01019648
:1004F0000E948B022F813885F801E20FF31F1082D2
:100500002E960FB6F894DEBF0FBECDBFDF91CF9110
:100510001F910F9108952F923F924F925F926F9289
:100520007F928F929F92AF92BF92CF92DF92EF9283
:10053000FF920F931F93CF93DF93CDB7DEB72C9726
:100540000FB6F894DEBF0FBECDBF7C016B018A01F0
:10055000FC0117821682838181FFBDC1CE01019605
:100560004C01F7019381F60193FD859193FF8191F1
:100570006F01882309F4ABC1853239F493FD85916D
:1005800093FF81916F01853229F4B70190E00E94B9
:100590009C04E7CF512C312C20E02032A0F48B3288
:1005A00069F030F4803259F0833269F420612CC054
:1005B0008D3239F0803339F4216026C02260246006
:1005C00023C0286021C027FD27C030ED380F3A3006
:1005D00078F426FF06C0FAE05F9E300D1124532EFA
:1005E00013C08AE0389E300D1124332E20620CC0D7
:1005F0008E3221F426FD6BC1206406C08C3611F4C6
:10060000206802C0883641F4F60193FD859193FF7E
:1006100081916F018111C1CF982F9F7D95549330A7
:1006200028F40C5F1F4FFFE3F9830DC0833631F0D0
:10063000833771F0833509F05BC022C0F8018081F7
:1006400089830E5F1F4F44244394512C540115C0DD
:100650003801F2E06F0E711CF801A080B18026FF16
:1006600003C0652D70E002C06FEF7FEFC5012C87DE
:100670000E9491042C0183012C852F77222E17C014
:100680003801F2E06F0E711CF801A080B18026FFE6
:1006900003C0652D70E002C06FEF7FEFC5012C87AE
:1006A0000E9486042C012C852068222E830123FCC5
:1006B0001BC0832D90E048165906B0F4B70180E2C4
:1006C00090E00E949C043A94F4CFF50127FC8591B8
:1006D00027FE81915F01B70190E00E949C043110D8
:1006E0003A94F1E04F1A51084114510471F7E5C0F2
:1006F000843611F0893639F5F80127FF07C060818B
:100700007181828193810C5F1F4F08C0608171816C
:10071000072E000C880B990B0E5F1F4F2F76722E41
:1007200097FF09C090958095709561957F4F8F4F89
:100730009F4F2068722E2AE030E0A4010E94D4046A
:10074000A82EA81844C0853729F42F7EB22E2AE09F
:1007500030E025C0F22FF97FBF2E8F36C1F018F49C
:10076000883579F0B4C0803719F0883721F0AFC0F0
:100770002F2F2061B22EB4FE0DC08B2D8460B82EB9
:1007800009C024FF0AC09F2F9660B92E06C028E03A
:1007900030E005C020E130E002C020E132E0F801A5
:1007A000B7FE07C060817181828193810C5F1F4F0A
:1007B00006C06081718180E090E00E5F1F4FA40150
:1007C0000E94D404A82EA818FB2DFF777F2E76FE5A
:1007D0000BC0372D3E7FA51450F474FE0AC072FC86
:1007E00008C0372D3E7E05C0BA2C372D03C0BA2C69
:1007F00001C0B52C34FF0DC0FE01EA0DF11D808152
:10080000803311F4397E09C032FF06C0B394B3942B
:1008100004C0832F867809F0B39433FD13C030FFF2
:1008200006C05A2CB31418F4530C5B18B32CB31431
:1008300068F4B70180E290E03C870E949C04B39486
:100840003C85F5CFB31410F43B1801C0312C34FFB4
:1008500012C0B70180E390E03C870E949C043C8575
:1008600032FF17C031FD03C088E790E002C088E581
:1008700090E0B7010CC0832F867859F031FF02C099
:100880008BE201C080E237FD8DE2B70190E00E946B
:100890009C04A51438F4B70180E390E00E949C0406
:1008A0005A94F7CFAA94F401EA0DF11D8081B701A3
:1008B00090E00E949C04A110F5CF332009F451CEA2
:1008C000B70180E290E00E949C043A94F6CFF701D1
:1008D0008681978102C08FEF9FEF2C960FB6F89418
:1008E000DEBF0FBECDBFDF91CF911F910F91FF9063
:1008F000EF90DF90CF90BF90AF909F908F907F90C0
:100900006F905F904F903F902F900895FC0105905D
:10091000615070400110D8F7809590958E0F9F1F01
:100920000895FC016150704001900110D8F7809546
:1009300090958E0F9F1F08950F931F93CF93DF9372
:10094000FB01238121FD03C08FEF9FEF28C022FF11
:1009500016C046815781248135814217530744F4DC
:10096000A081B1819D012F5F3F4F318320838C9304
:10097000268137812F5F3F4F3783268310C0EB01DD
:10098000092F182F0084F185E02D1995892BE1F6A8
:100990008E819F8101969F838E83812F902FDF917F
:1009A000CF911F910F910895FA01AA27283051F194
:1009B000203181F1E8946F936E7F6E5F7F4F8F4F90
:1009C0009F4FAF4FB1E03ED0B4E03CD0670F781FEF
:1009D000891F9A1FA11D680F791F8A1F911DA11DD4
:1009E0006A0F711D811D911DA11D20D009F468940D
:1009F0003F912AE0269F11243019305D3193DEF6B5
:100A0000CF010895462F4770405D4193B3E00FD06A
:100A1000C9F7F6CF462F4F70405D4A3318F0495D55
:100A200031FD4052419302D0A9F7EACFB4E0A69538
:100A30009795879577956795BA95C9F7009761055A
:100A4000710508959B01AC010A2E069457954795B0
:100A500037952795BA95C9F7620F731F841F951FA5
:080A6000A01D0895F894FFCFDA
:100A68003132333435363738394100000000000060
:100A7800000000000000000000000000000000006E
:100A8800000000000000000000000000000000005E
:100A9800000000000000000000000000000000004E
:100AA800000000000000000000000000000000003E
:100AB800000000000000000000000000000000002E
:100AC800000000000000000000000000000000001E
:100AD800000000000000000000000000000000000E
:100AE8000A0D6E6577207472616D65212073697ACD
:100AF800653A2025642C20525353493A20256464D2
:100B0800426D0A0D20636F6E74656E753A20257309
:040B18000A0D0000C2
:00000001FF
